{
  "contractName": "HelloWorld",
  "abi": [
    {
      "constant": true,
      "inputs": [],
      "name": "get",
      "outputs": [
        {
          "name": "",
          "type": "string"
        }
      ],
      "payable": false,
      "stateMutability": "pure",
      "type": "function"
    }
  ],
  "bytecode": "0x608060405234801561001057600080fd5b5061013f806100206000396000f300608060405260043610610041576000357c0100000000000000000000000000000000000000000000000000000000900463ffffffff1680636d4ce63c14610046575b600080fd5b34801561005257600080fd5b5061005b6100d6565b6040518080602001828103825283818151815260200191508051906020019080838360005b8381101561009b578082015181840152602081019050610080565b50505050905090810190601f1680156100c85780820380516001836020036101000a031916815260200191505b509250505060405180910390f35b60606040805190810160405280600c81526020017f48656c6c6f20576f726c642100000000000000000000000000000000000000008152509050905600a165627a7a7230582074f4b43ea11b6fd884c9f1d8f957964e19bfcc74c45152406809180a433302bf0029",
  "source": "pragma solidity ^0.4.4;\n \ncontract HelloWorld {\n \n  function get() public pure returns (string) {\n    return \"Hello World!\";\n  }\n}",
  "sourcePath": "/Users/andy/evoting_beta/contracts/helloworld.sol",
  "compiler": {
    "name": "solc",
    "version": "0.4.24+commit.e67f0147.Emscripten.clang"
  },
  "schemaVersion": "2.0.1",
  "updatedAt": "2018-09-03T08:59:51.261Z"
}