{
  "contractName": "MyVerify",
  "abi": [
    {
      "constant": true,
      "inputs": [],
      "name": "ownerAddr",
      "outputs": [
        {
          "name": "",
          "type": "address"
        }
      ],
      "payable": false,
      "stateMutability": "view",
      "type": "function"
    },
    {
      "constant": false,
      "inputs": [
        {
          "name": "_newOwner",
          "type": "address"
        }
      ],
      "name": "transferOwnership",
      "outputs": [],
      "payable": false,
      "stateMutability": "nonpayable",
      "type": "function"
    },
    {
      "constant": true,
      "inputs": [
        {
          "name": "hash",
          "type": "bytes32"
        },
        {
          "name": "signature",
          "type": "bytes"
        }
      ],
      "name": "ecverify",
      "outputs": [
        {
          "name": "sig_address",
          "type": "address"
        }
      ],
      "payable": false,
      "stateMutability": "pure",
      "type": "function"
    }
  ],
  "bytecode": "0x6080604052336000806101000a81548173ffffffffffffffffffffffffffffffffffffffff021916908373ffffffffffffffffffffffffffffffffffffffff1602179055506104f9806100536000396000f300608060405260043610610057576000357c0100000000000000000000000000000000000000000000000000000000900463ffffffff1680639c675eaa1461005c578063e47c5902146100b3578063f2fde38b1461016a575b600080fd5b34801561006857600080fd5b506100716101ad565b604051808273ffffffffffffffffffffffffffffffffffffffff1673ffffffffffffffffffffffffffffffffffffffff16815260200191505060405180910390f35b3480156100bf57600080fd5b506101286004803603810190808035600019169060200190929190803590602001908201803590602001908080601f01602080910402602001604051908101604052809392919081815260200183838082843782019150505050505091929192905050506101d2565b604051808273ffffffffffffffffffffffffffffffffffffffff1673ffffffffffffffffffffffffffffffffffffffff16815260200191505060405180910390f35b34801561017657600080fd5b506101ab600480360381019080803573ffffffffffffffffffffffffffffffffffffffff169060200190929190505050610398565b005b6000809054906101000a900473ffffffffffffffffffffffffffffffffffffffff1681565b60008060008060606000604187511415156101ec57600080fd5b6020870151945060408701519350606087015160001a9250601b8360ff16101561021757601b830192505b6040805190810160405280601c81526020017f19457468657265756d205369676e6564204d6573736167653a0a333200000000815250915081886040518083805190602001908083835b6020831015156102865780518252602082019150602081019050602083039250610261565b6001836020036101000a03801982511681845116808217855250505050505090500182600019166000191681526020019250505060405180910390209050601b8360ff1614806102d95750601c8360ff16145b15156102e457600080fd5b600181848787604051600081526020016040526040518085600019166000191681526020018460ff1660ff1681526020018360001916600019168152602001826000191660001916815260200194505050505060206040516020810390808403906000865af115801561035b573d6000803e3d6000fd5b50505060206040510351955060008673ffffffffffffffffffffffffffffffffffffffff161415151561038d57600080fd5b505050505092915050565b6000809054906101000a900473ffffffffffffffffffffffffffffffffffffffff1673ffffffffffffffffffffffffffffffffffffffff163373ffffffffffffffffffffffffffffffffffffffff161415156103f357600080fd5b6000809054906101000a900473ffffffffffffffffffffffffffffffffffffffff1673ffffffffffffffffffffffffffffffffffffffff163373ffffffffffffffffffffffffffffffffffffffff1614151561044e57600080fd5b600073ffffffffffffffffffffffffffffffffffffffff168173ffffffffffffffffffffffffffffffffffffffff161415151561048a57600080fd5b806000806101000a81548173ffffffffffffffffffffffffffffffffffffffff021916908373ffffffffffffffffffffffffffffffffffffffff160217905550505600a165627a7a72305820e2d52c1b4a3c6a2d713b75f6f61ee3ea5501acb8385e092bd0ee967c7c50be120029",
  "source": "pragma solidity ^0.4.18;\nimport \"./Owned.sol\";\n\ncontract MyVerify is Owned{\n\n    function ecverify(bytes32 hash, bytes signature) public pure returns(address sig_address) {\n        //署名したアドレスが返り値\n        require(signature.length == 65);\n\n        bytes32 r;\n        bytes32 s;\n        uint8 v;\n\n    // The signature format is a compact form of:\n    //   {bytes32 r}{bytes32 s}{uint8 v}\n    // Compact means, uint8 is not padded to 32 bytes.\n        assembly {\n          r := mload(add(signature, 32))\n          s := mload(add(signature, 64))\n\n    // Here we are loading the last 32 bytes, including 31 bytes of 's'.\n          v := byte(0, mload(add(signature, 96)))\n        }\n\n    // Version of signature should be 27 or 28, but 0 and 1 are also possible\n        if (v < 27) {\n            v += 27;\n        }\n\n        bytes memory prefix = \"\\x19Ethereum Signed Message:\\n32\";\n        bytes32 prefixedHash = keccak256(prefix, hash);\n\n        require(v == 27 || v == 28);\n        sig_address = ecrecover(prefixedHash, v, r, s);\n\n    // ecrecover returns zero on error\n        require(sig_address != 0x0);\n    //return sig_address;\n    //return(sig_address == _address);\n    }\n}",
  "sourcePath": "/Users/andy/evoting_beta/contracts/MyVerify.sol",
  "compiler": {
    "name": "solc",
    "version": "0.4.24+commit.e67f0147.Emscripten.clang"
  },
  "schemaVersion": "2.0.1",
  "updatedAt": "2018-09-27T08:07:55.442Z"
}