{
  "contractName": "Vote",
  "abi": [
    {
      "constant": true,
      "inputs": [
        {
          "name": "",
          "type": "uint256"
        }
      ],
      "name": "votes",
      "outputs": [
        {
          "name": "hashedVote",
          "type": "bytes32"
        },
        {
          "name": "voterAddr",
          "type": "address"
        },
        {
          "name": "signByOrganizer",
          "type": "bytes"
        },
        {
          "name": "signByInspector",
          "type": "bytes"
        },
        {
          "name": "publickey1",
          "type": "uint256"
        },
        {
          "name": "publickey2",
          "type": "uint256"
        }
      ],
      "payable": false,
      "stateMutability": "view",
      "type": "function"
    },
    {
      "constant": true,
      "inputs": [],
      "name": "ownerAddr",
      "outputs": [
        {
          "name": "",
          "type": "address"
        }
      ],
      "payable": false,
      "stateMutability": "view",
      "type": "function"
    },
    {
      "constant": true,
      "inputs": [
        {
          "name": "hash",
          "type": "bytes32"
        },
        {
          "name": "signature",
          "type": "bytes"
        }
      ],
      "name": "ecverify",
      "outputs": [
        {
          "name": "sig_address",
          "type": "address"
        }
      ],
      "payable": false,
      "stateMutability": "pure",
      "type": "function"
    },
    {
      "constant": true,
      "inputs": [
        {
          "name": "",
          "type": "uint256"
        }
      ],
      "name": "voteToOwner",
      "outputs": [
        {
          "name": "",
          "type": "address"
        }
      ],
      "payable": false,
      "stateMutability": "view",
      "type": "function"
    },
    {
      "constant": false,
      "inputs": [
        {
          "name": "_newOwner",
          "type": "address"
        }
      ],
      "name": "transferOwnership",
      "outputs": [],
      "payable": false,
      "stateMutability": "nonpayable",
      "type": "function"
    },
    {
      "constant": false,
      "inputs": [
        {
          "name": "_voterAddr",
          "type": "address"
        }
      ],
      "name": "setVoterAddr",
      "outputs": [],
      "payable": false,
      "stateMutability": "nonpayable",
      "type": "function"
    },
    {
      "constant": false,
      "inputs": [],
      "name": "checkVoterAddr",
      "outputs": [
        {
          "name": "",
          "type": "address"
        }
      ],
      "payable": false,
      "stateMutability": "nonpayable",
      "type": "function"
    },
    {
      "constant": false,
      "inputs": [],
      "name": "getOwner",
      "outputs": [
        {
          "name": "",
          "type": "address"
        }
      ],
      "payable": false,
      "stateMutability": "nonpayable",
      "type": "function"
    },
    {
      "constant": false,
      "inputs": [
        {
          "name": "count",
          "type": "uint256"
        }
      ],
      "name": "testVoter",
      "outputs": [
        {
          "name": "",
          "type": "uint256"
        }
      ],
      "payable": false,
      "stateMutability": "nonpayable",
      "type": "function"
    },
    {
      "constant": false,
      "inputs": [
        {
          "name": "_hashedVote",
          "type": "bytes32"
        }
      ],
      "name": "createVote",
      "outputs": [
        {
          "name": "",
          "type": "uint256"
        }
      ],
      "payable": false,
      "stateMutability": "nonpayable",
      "type": "function"
    },
    {
      "constant": false,
      "inputs": [
        {
          "name": "_voteId",
          "type": "uint256"
        },
        {
          "name": "_signature",
          "type": "bytes"
        }
      ],
      "name": "signByOrganizer",
      "outputs": [],
      "payable": false,
      "stateMutability": "nonpayable",
      "type": "function"
    },
    {
      "constant": false,
      "inputs": [
        {
          "name": "_voteId",
          "type": "uint256"
        },
        {
          "name": "_signature",
          "type": "bytes"
        }
      ],
      "name": "signByInspector",
      "outputs": [],
      "payable": false,
      "stateMutability": "nonpayable",
      "type": "function"
    },
    {
      "constant": false,
      "inputs": [
        {
          "name": "_voteId",
          "type": "uint256"
        }
      ],
      "name": "voteToCandidate",
      "outputs": [],
      "payable": false,
      "stateMutability": "nonpayable",
      "type": "function"
    },
    {
      "constant": true,
      "inputs": [
        {
          "name": "_candidateId",
          "type": "uint256"
        }
      ],
      "name": "getVote",
      "outputs": [
        {
          "name": "",
          "type": "uint256"
        }
      ],
      "payable": false,
      "stateMutability": "view",
      "type": "function"
    },
    {
      "constant": false,
      "inputs": [
        {
          "name": "_testId",
          "type": "uint256"
        }
      ],
      "name": "test",
      "outputs": [],
      "payable": false,
      "stateMutability": "nonpayable",
      "type": "function"
    },
    {
      "constant": false,
      "inputs": [],
      "name": "testreturn",
      "outputs": [
        {
          "name": "",
          "type": "uint256"
        }
      ],
      "payable": false,
      "stateMutability": "nonpayable",
      "type": "function"
    }
  ],
  "bytecode": "0x60806040526001600855336000806101000a81548173ffffffffffffffffffffffffffffffffffffffff021916908373ffffffffffffffffffffffffffffffffffffffff16021790555061156c806100586000396000f3006080604052600436106100e6576000357c0100000000000000000000000000000000000000000000000000000000900463ffffffff1680631dd410cf146100eb578063201497ef1461012e578063241108d11461015957806329e99f071461019a57806356be1658146101c7578063596215e4146101f45780635a55c1f0146102675780635df81330146102a857806363b41e051461040a5780636804565b14610461578063893d20e8146104d45780639c675eaa1461052b578063cc9afb4714610582578063e47c5902146105c7578063e6ee3e641461067e578063f2fde38b146106eb575b600080fd5b3480156100f757600080fd5b5061012c600480360381019080803573ffffffffffffffffffffffffffffffffffffffff16906020019092919050505061072e565b005b34801561013a57600080fd5b506101436107cd565b6040518082815260200191505060405180910390f35b34801561016557600080fd5b50610184600480360381019080803590602001909291905050506107d7565b6040518082815260200191505060405180910390f35b3480156101a657600080fd5b506101c56004803603810190808035906020019092919050505061083d565b005b3480156101d357600080fd5b506101f260048036038101908080359060200190929190505050610847565b005b34801561020057600080fd5b5061026560048036038101908080359060200190929190803590602001908201803590602001908080601f01602080910402602001604051908101604052809392919081815260200183838082843782019150505050505091929192905050506109cd565b005b34801561027357600080fd5b5061029260048036038101908080359060200190929190505050610a7b565b6040518082815260200191505060405180910390f35b3480156102b457600080fd5b506102d360048036038101908080359060200190929190505050610af3565b6040518087600019166000191681526020018673ffffffffffffffffffffffffffffffffffffffff1673ffffffffffffffffffffffffffffffffffffffff1681526020018060200180602001858152602001848152602001838103835287818151815260200191508051906020019080838360005b83811015610363578082015181840152602081019050610348565b50505050905090810190601f1680156103905780820380516001836020036101000a031916815260200191505b50838103825286818151815260200191508051906020019080838360005b838110156103c95780820151818401526020810190506103ae565b50505050905090810190601f1680156103f65780820380516001836020036101000a031916815260200191505b509850505050505050505060405180910390f35b34801561041657600080fd5b5061041f610c8e565b604051808273ffffffffffffffffffffffffffffffffffffffff1673ffffffffffffffffffffffffffffffffffffffff16815260200191505060405180910390f35b34801561046d57600080fd5b506104d260048036038101908080359060200190929190803590602001908201803590602001908080601f0160208091040260200160405190810160405280939291908181526020018383808284378201915050505050509192919290505050610cb8565b005b3480156104e057600080fd5b506104e9610e58565b604051808273ffffffffffffffffffffffffffffffffffffffff1673ffffffffffffffffffffffffffffffffffffffff16815260200191505060405180910390f35b34801561053757600080fd5b50610540610e81565b604051808273ffffffffffffffffffffffffffffffffffffffff1673ffffffffffffffffffffffffffffffffffffffff16815260200191505060405180910390f35b34801561058e57600080fd5b506105b16004803603810190808035600019169060200190929190505050610ea6565b6040518082815260200191505060405180910390f35b3480156105d357600080fd5b5061063c6004803603810190808035600019169060200190929190803590602001908201803590602001908080601f01602080910402602001604051908101604052809392919081815260200183838082843782019150505050505091929192905050506110ed565b604051808273ffffffffffffffffffffffffffffffffffffffff1673ffffffffffffffffffffffffffffffffffffffff16815260200191505060405180910390f35b34801561068a57600080fd5b506106a9600480360381019080803590602001909291905050506112b3565b604051808273ffffffffffffffffffffffffffffffffffffffff1673ffffffffffffffffffffffffffffffffffffffff16815260200191505060405180910390f35b3480156106f757600080fd5b5061072c600480360381019080803573ffffffffffffffffffffffffffffffffffffffff1690602001909291905050506112e6565b005b6000809054906101000a900473ffffffffffffffffffffffffffffffffffffffff1673ffffffffffffffffffffffffffffffffffffffff163373ffffffffffffffffffffffffffffffffffffffff1614151561078957600080fd5b80600960006101000a81548173ffffffffffffffffffffffffffffffffffffffff021916908373ffffffffffffffffffffffffffffffffffffffff16021790555050565b6000600854905090565b6000600960009054906101000a900473ffffffffffffffffffffffffffffffffffffffff1673ffffffffffffffffffffffffffffffffffffffff163373ffffffffffffffffffffffffffffffffffffffff1614151561083557600080fd5b819050919050565b8060088190555050565b6000600960009054906101000a900473ffffffffffffffffffffffffffffffffffffffff1673ffffffffffffffffffffffffffffffffffffffff163373ffffffffffffffffffffffffffffffffffffffff161415156108a557600080fd5b600c828154811015156108b457fe5b9060005260206000209060060201905061096e8160000154826003018054600181600116156101000203166002900480601f0160208091040260200160405190810160405280929190818152602001828054600181600116156101000203166002900480156109645780601f1061093957610100808354040283529160200191610964565b820191906000526020600020905b81548152906001019060200180831161094757829003601f168201915b50505050506110ed565b73ffffffffffffffffffffffffffffffffffffffff16600b60009054906101000a900473ffffffffffffffffffffffffffffffffffffffff1673ffffffffffffffffffffffffffffffffffffffff161415156109c957600080fd5b5050565b60008060009054906101000a900473ffffffffffffffffffffffffffffffffffffffff1673ffffffffffffffffffffffffffffffffffffffff163373ffffffffffffffffffffffffffffffffffffffff16141515610a2a57600080fd5b600c83815481101515610a3957fe5b9060005260206000209060060201905081816002019080519060200190610a6192919061141b565b5060078160040181905550600b8160050181905550505050565b60008060009054906101000a900473ffffffffffffffffffffffffffffffffffffffff1673ffffffffffffffffffffffffffffffffffffffff163373ffffffffffffffffffffffffffffffffffffffff16141515610ad857600080fd5b60066000838152602001908152602001600020549050919050565b600c81815481101515610b0257fe5b90600052602060002090600602016000915090508060000154908060010160009054906101000a900473ffffffffffffffffffffffffffffffffffffffff1690806002018054600181600116156101000203166002900480601f016020809104026020016040519081016040528092919081815260200182805460018160011615610100020316600290048015610bda5780601f10610baf57610100808354040283529160200191610bda565b820191906000526020600020905b815481529060010190602001808311610bbd57829003601f168201915b505050505090806003018054600181600116156101000203166002900480601f016020809104026020016040519081016040528092919081815260200182805460018160011615610100020316600290048015610c785780601f10610c4d57610100808354040283529160200191610c78565b820191906000526020600020905b815481529060010190602001808311610c5b57829003601f168201915b5050505050908060040154908060050154905086565b6000600960009054906101000a900473ffffffffffffffffffffffffffffffffffffffff16905090565b6000600b60009054906101000a900473ffffffffffffffffffffffffffffffffffffffff1673ffffffffffffffffffffffffffffffffffffffff163373ffffffffffffffffffffffffffffffffffffffff16141515610d1657600080fd5b600c83815481101515610d2557fe5b90600052602060002090600602019050610ddf8160000154826002018054600181600116156101000203166002900480601f016020809104026020016040519081016040528092919081815260200182805460018160011615610100020316600290048015610dd55780601f10610daa57610100808354040283529160200191610dd5565b820191906000526020600020905b815481529060010190602001808311610db857829003601f168201915b50505050506110ed565b73ffffffffffffffffffffffffffffffffffffffff16600a60009054906101000a900473ffffffffffffffffffffffffffffffffffffffff1673ffffffffffffffffffffffffffffffffffffffff16141515610e3a57600080fd5b81816003019080519060200190610e5292919061141b565b50505050565b60008060009054906101000a900473ffffffffffffffffffffffffffffffffffffffff16905090565b6000809054906101000a900473ffffffffffffffffffffffffffffffffffffffff1681565b600080600960009054906101000a900473ffffffffffffffffffffffffffffffffffffffff1673ffffffffffffffffffffffffffffffffffffffff163373ffffffffffffffffffffffffffffffffffffffff16141515610f0557600080fd5b6001600c60c060405190810160405280866000191681526020013373ffffffffffffffffffffffffffffffffffffffff1681526020016040805190810160405280600381526020017f307830000000000000000000000000000000000000000000000000000000000081525081526020016040805190810160405280600381526020017f30783000000000000000000000000000000000000000000000000000000000008152508152602001600081526020016000815250908060018154018082558091505090600182039060005260206000209060060201600090919290919091506000820151816000019060001916905560208201518160010160006101000a81548173ffffffffffffffffffffffffffffffffffffffff021916908373ffffffffffffffffffffffffffffffffffffffff160217905550604082015181600201908051906020019061105b92919061149b565b50606082015181600301908051906020019061107892919061149b565b506080820151816004015560a082015181600501555050039050336001600083815260200190815260200160002060006101000a81548173ffffffffffffffffffffffffffffffffffffffff021916908373ffffffffffffffffffffffffffffffffffffffff16021790555080915050919050565b600080600080606060006041875114151561110757600080fd5b6020870151945060408701519350606087015160001a9250601b8360ff16101561113257601b830192505b6040805190810160405280601c81526020017f19457468657265756d205369676e6564204d6573736167653a0a333200000000815250915081886040518083805190602001908083835b6020831015156111a1578051825260208201915060208101905060208303925061117c565b6001836020036101000a03801982511681845116808217855250505050505090500182600019166000191681526020019250505060405180910390209050601b8360ff1614806111f45750601c8360ff16145b15156111ff57600080fd5b600181848787604051600081526020016040526040518085600019166000191681526020018460ff1660ff1681526020018360001916600019168152602001826000191660001916815260200194505050505060206040516020810390808403906000865af1158015611276573d6000803e3d6000fd5b50505060206040510351955060008673ffffffffffffffffffffffffffffffffffffffff16141515156112a857600080fd5b505050505092915050565b60016020528060005260406000206000915054906101000a900473ffffffffffffffffffffffffffffffffffffffff1681565b6000809054906101000a900473ffffffffffffffffffffffffffffffffffffffff1673ffffffffffffffffffffffffffffffffffffffff163373ffffffffffffffffffffffffffffffffffffffff1614151561134157600080fd5b6000809054906101000a900473ffffffffffffffffffffffffffffffffffffffff1673ffffffffffffffffffffffffffffffffffffffff163373ffffffffffffffffffffffffffffffffffffffff1614151561139c57600080fd5b600073ffffffffffffffffffffffffffffffffffffffff168173ffffffffffffffffffffffffffffffffffffffff16141515156113d857600080fd5b806000806101000a81548173ffffffffffffffffffffffffffffffffffffffff021916908373ffffffffffffffffffffffffffffffffffffffff16021790555050565b828054600181600116156101000203166002900490600052602060002090601f016020900481019282601f1061145c57805160ff191683800117855561148a565b8280016001018555821561148a579182015b8281111561148957825182559160200191906001019061146e565b5b509050611497919061151b565b5090565b828054600181600116156101000203166002900490600052602060002090601f016020900481019282601f106114dc57805160ff191683800117855561150a565b8280016001018555821561150a579182015b828111156115095782518255916020019190600101906114ee565b5b509050611517919061151b565b5090565b61153d91905b80821115611539576000816000905550600101611521565b5090565b905600a165627a7a7230582092090ff45f3e506f81807ccd6d6891ecc1c778490554be6bef2d0076b555f4950029",
  "source": "pragma solidity ^0.4.19;\nimport \"./MyVerify.sol\";\nimport \"./Owned.sol\";\n\ncontract Vote is MyVerify {\n\n    //mapping (uint => uint) voteId;\n    mapping(uint => address) public voteToOwner;\n    mapping(address => uint) ownerToVote;\n    mapping(address => uint) ownerVoteCount;\n    mapping(address => bytes32) hashedIdCollections;\n    mapping (uint => address) candidateToAddress;\n    mapping(uint => uint) candidateVoteCounts;\n    mapping(bytes32 => uint) firstSend;\n\n    uint testId=1;\n    \n    address voterAddr;\n    address organizerAddr;\n    address inspectorAddr;\n    \n    //vote \n    struct Vote{\n        bytes32 hashedVote;\n        address voterAddr;\n        bytes signByOrganizer;\n        bytes signByInspector;\n        uint publickey1;\n        uint publickey2;\n    }\n    \n    Vote[] public votes;\n\n    modifier onlyVoter{\n        require(msg.sender == voterAddr);\n        _;\n    }\n\n    modifier onlyInspector{\n        require(msg.sender == inspectorAddr);\n        _;\n    }\n    \n    //set voter address\n    function setVoterAddr(address _voterAddr) public onlyOwner{\n        voterAddr = _voterAddr;\n        //voterAddrs[_index] = _voterAddr;\n    }\n    //test//////////////////////\n    function checkVoterAddr() public returns(address){\n        return voterAddr;\n    }\n\n    function getOwner() public returns (address){\n        return ownerAddr;\n    }\n    \n    \n    function testVoter(uint count) public onlyVoter returns(uint){\n        return count;\n    }\n    //test//////////////////////\n\n    function createVote(bytes32 _hashedVote) public onlyVoter returns(uint){\n        //票の初期化\n        uint id = votes.push(Vote(_hashedVote,msg.sender,\"0x0\",\"0x0\",0,0))-1;\n        //票と投票者の紐付け\n        voteToOwner[id] = msg.sender;\n        return id;\n    }\n    \n    function signByOrganizer(uint _voteId, bytes _signature) public onlyOwner{\n        /*\n        signatureはクライアント側でweb3を使う必要あり\n        _signature = web3.eth.sign(account, hash)\n        */\n        \n        Vote storage myVote = votes[_voteId];\n        myVote.signByOrganizer = _signature;\n        //これでorganzierのアドレスが返して，それをVoteに入れる\n        /////公開鍵を投票者に送信\n        //RSAで実装\n        //仮の公開鍵として(7,11)を設定しておく\n        myVote.publickey1 = 7;\n        myVote.publickey2 = 11;\n\n        //ECCでの実装はまだ\n        \n    }\n    \n    //signature by Inspector\n    function signByInspector(uint _voteId, bytes _signature) public onlyInspector{\n        //send voter\n        //send public key and vote\n        //signatureはクライアント側でweb3を使う必要あり\n        //web3.eth.sign(account, hash)のaccountをOrganaizerのアドレスで実行して\n        //_signatureに渡すこと\n        \n        Vote storage myVote = votes[_voteId];\n        //運営の署名の検証\n        require(organizerAddr == ecverify(myVote.hashedVote,myVote.signByOrganizer));\n        //投票者の確認\n        //未実装\n        //署名\n        myVote.signByInspector = _signature;\n    }\n    \n    function voteToCandidate(uint _voteId) public onlyVoter{\n        //Vote.organizerSigの内容をecverifyで確認する\n        Vote storage myVote = votes[_voteId];\n        require(inspectorAddr == ecverify(myVote.hashedVote, myVote.signByInspector));\n        //ここから公開鍵で暗号化された投票内容（hashではない）を復号\n        //hashedVoteを復号する.と思ったけど，復号はクライアント側でやってもらう事にする.\n        //candidateVoteCounts[_candidateId]++;\n    }\n\n\n    //count votes\n    function getVote(uint _candidateId) public view onlyOwner returns(uint){\n        return candidateVoteCounts[_candidateId];\n    }\n    \n    ///////////////////test ///////////////////\n    function test(uint _testId) public {\n        testId = _testId;\n    }\n    \n    function testreturn() public returns(uint){\n        return testId;\n    }\n    ////////////test////////////////////////\n\n}",
  "sourcePath": "/Users/andy/evoting_beta/contracts/Vote.sol",
  "compiler": {
    "name": "solc",
    "version": "0.4.24+commit.e67f0147.Emscripten.clang"
  },
  "schemaVersion": "2.0.1",
  "updatedAt": "2018-09-14T04:52:41.836Z"
}