{
  "contractName": "Vote",
  "abi": [
    {
      "constant": true,
      "inputs": [
        {
          "name": "",
          "type": "uint256"
        }
      ],
      "name": "ballots",
      "outputs": [
        {
          "name": "hashedVote",
          "type": "bytes32"
        },
        {
          "name": "voterAddr",
          "type": "address"
        },
        {
          "name": "signByOrganizer",
          "type": "bytes"
        },
        {
          "name": "signByInspector",
          "type": "bytes"
        },
        {
          "name": "publickey1",
          "type": "uint256"
        },
        {
          "name": "publickey2",
          "type": "uint256"
        }
      ],
      "payable": false,
      "stateMutability": "view",
      "type": "function"
    },
    {
      "constant": true,
      "inputs": [
        {
          "name": "",
          "type": "uint256"
        }
      ],
      "name": "votes",
      "outputs": [
        {
          "name": "hashedVote",
          "type": "bytes32"
        },
        {
          "name": "voterAddr",
          "type": "address"
        },
        {
          "name": "signByOrganizer",
          "type": "bytes"
        },
        {
          "name": "signByInspector",
          "type": "bytes"
        },
        {
          "name": "publickey1",
          "type": "uint256"
        },
        {
          "name": "publickey2",
          "type": "uint256"
        }
      ],
      "payable": false,
      "stateMutability": "view",
      "type": "function"
    },
    {
      "constant": true,
      "inputs": [],
      "name": "ownerAddr",
      "outputs": [
        {
          "name": "",
          "type": "address"
        }
      ],
      "payable": false,
      "stateMutability": "view",
      "type": "function"
    },
    {
      "constant": true,
      "inputs": [
        {
          "name": "hash",
          "type": "bytes32"
        },
        {
          "name": "signature",
          "type": "bytes"
        }
      ],
      "name": "ecverify",
      "outputs": [
        {
          "name": "sig_address",
          "type": "address"
        }
      ],
      "payable": false,
      "stateMutability": "pure",
      "type": "function"
    },
    {
      "constant": true,
      "inputs": [
        {
          "name": "",
          "type": "uint256"
        }
      ],
      "name": "voteToOwner",
      "outputs": [
        {
          "name": "",
          "type": "address"
        }
      ],
      "payable": false,
      "stateMutability": "view",
      "type": "function"
    },
    {
      "constant": false,
      "inputs": [
        {
          "name": "_newOwner",
          "type": "address"
        }
      ],
      "name": "transferOwnership",
      "outputs": [],
      "payable": false,
      "stateMutability": "nonpayable",
      "type": "function"
    },
    {
      "constant": false,
      "inputs": [
        {
          "name": "_testId",
          "type": "uint256"
        }
      ],
      "name": "test",
      "outputs": [],
      "payable": false,
      "stateMutability": "nonpayable",
      "type": "function"
    },
    {
      "constant": false,
      "inputs": [],
      "name": "testreturn",
      "outputs": [
        {
          "name": "",
          "type": "uint256"
        }
      ],
      "payable": false,
      "stateMutability": "nonpayable",
      "type": "function"
    },
    {
      "constant": false,
      "inputs": [
        {
          "name": "_inspectorAddr",
          "type": "address"
        }
      ],
      "name": "setInspectorAddr",
      "outputs": [],
      "payable": false,
      "stateMutability": "nonpayable",
      "type": "function"
    },
    {
      "constant": false,
      "inputs": [],
      "name": "checkVoterAddr",
      "outputs": [
        {
          "name": "",
          "type": "address"
        }
      ],
      "payable": false,
      "stateMutability": "nonpayable",
      "type": "function"
    },
    {
      "constant": false,
      "inputs": [],
      "name": "getOwner",
      "outputs": [
        {
          "name": "",
          "type": "address"
        }
      ],
      "payable": false,
      "stateMutability": "nonpayable",
      "type": "function"
    },
    {
      "constant": false,
      "inputs": [
        {
          "name": "count",
          "type": "uint256"
        }
      ],
      "name": "testVoter",
      "outputs": [
        {
          "name": "",
          "type": "uint256"
        }
      ],
      "payable": false,
      "stateMutability": "nonpayable",
      "type": "function"
    },
    {
      "constant": false,
      "inputs": [
        {
          "name": "_voteId",
          "type": "uint256"
        }
      ],
      "name": "getVoteSignByOrganizer",
      "outputs": [
        {
          "name": "",
          "type": "bytes"
        }
      ],
      "payable": false,
      "stateMutability": "nonpayable",
      "type": "function"
    },
    {
      "constant": false,
      "inputs": [
        {
          "name": "_voteId",
          "type": "uint256"
        }
      ],
      "name": "getVotehasedVote",
      "outputs": [
        {
          "name": "",
          "type": "bytes32"
        }
      ],
      "payable": false,
      "stateMutability": "nonpayable",
      "type": "function"
    },
    {
      "constant": false,
      "inputs": [
        {
          "name": "_voterAddr",
          "type": "address"
        }
      ],
      "name": "setVoterAddr",
      "outputs": [],
      "payable": false,
      "stateMutability": "nonpayable",
      "type": "function"
    },
    {
      "constant": false,
      "inputs": [
        {
          "name": "_hashedVote",
          "type": "bytes32"
        }
      ],
      "name": "createVote",
      "outputs": [
        {
          "name": "",
          "type": "uint256"
        }
      ],
      "payable": false,
      "stateMutability": "nonpayable",
      "type": "function"
    },
    {
      "constant": false,
      "inputs": [
        {
          "name": "_voteId",
          "type": "uint256"
        },
        {
          "name": "_signature",
          "type": "bytes"
        }
      ],
      "name": "signByOrganizer",
      "outputs": [],
      "payable": false,
      "stateMutability": "nonpayable",
      "type": "function"
    },
    {
      "constant": false,
      "inputs": [
        {
          "name": "_voteId",
          "type": "uint256"
        },
        {
          "name": "_signature",
          "type": "bytes"
        }
      ],
      "name": "signByInspector",
      "outputs": [],
      "payable": false,
      "stateMutability": "nonpayable",
      "type": "function"
    },
    {
      "constant": false,
      "inputs": [
        {
          "name": "_voteId",
          "type": "uint256"
        }
      ],
      "name": "voteToCandidate",
      "outputs": [],
      "payable": false,
      "stateMutability": "nonpayable",
      "type": "function"
    },
    {
      "constant": true,
      "inputs": [
        {
          "name": "_candidateId",
          "type": "uint256"
        }
      ],
      "name": "getVote",
      "outputs": [
        {
          "name": "",
          "type": "uint256"
        }
      ],
      "payable": false,
      "stateMutability": "view",
      "type": "function"
    }
  ],
  "bytecode": "0x60806040526001600855336000806101000a81548173ffffffffffffffffffffffffffffffffffffffff021916908373ffffffffffffffffffffffffffffffffffffffff160217905550611b5b806100586000396000f300608060405260043610610112576000357c0100000000000000000000000000000000000000000000000000000000900463ffffffff1680631dd410cf14610117578063201497ef1461015a578063241108d11461018557806329e99f07146101c6578063533e4bd1146101f357806356be165814610299578063596215e4146102c65780635a55c1f0146103395780635c632b381461037a5780635df81330146104dc57806363b41e051461063e5780636804565b14610695578063893d20e8146107085780639c675eaa1461075f578063c0f8ad4d146107b6578063cc9afb47146107ff578063e47c590214610844578063e6ee3e64146108fb578063f0bcedde14610968578063f2fde38b146109ab575b600080fd5b34801561012357600080fd5b50610158600480360381019080803573ffffffffffffffffffffffffffffffffffffffff1690602001909291905050506109ee565b005b34801561016657600080fd5b5061016f610a8d565b6040518082815260200191505060405180910390f35b34801561019157600080fd5b506101b060048036038101908080359060200190929190505050610a97565b6040518082815260200191505060405180910390f35b3480156101d257600080fd5b506101f160048036038101908080359060200190929190505050610afd565b005b3480156101ff57600080fd5b5061021e60048036038101908080359060200190929190505050610b07565b6040518080602001828103825283818151815260200191508051906020019080838360005b8381101561025e578082015181840152602081019050610243565b50505050905090810190601f16801561028b5780820380516001836020036101000a031916815260200191505b509250505060405180910390f35b3480156102a557600080fd5b506102c460048036038101908080359060200190929190505050610bc9565b005b3480156102d257600080fd5b5061033760048036038101908080359060200190929190803590602001908201803590602001908080601f0160208091040260200160405190810160405280939291908181526020018383808284378201915050505050509192919290505050610d4f565b005b34801561034557600080fd5b5061036460048036038101908080359060200190929190505050610de3565b6040518082815260200191505060405180910390f35b34801561038657600080fd5b506103a560048036038101908080359060200190929190505050610e5b565b6040518087600019166000191681526020018673ffffffffffffffffffffffffffffffffffffffff1673ffffffffffffffffffffffffffffffffffffffff1681526020018060200180602001858152602001848152602001838103835287818151815260200191508051906020019080838360005b8381101561043557808201518184015260208101905061041a565b50505050905090810190601f1680156104625780820380516001836020036101000a031916815260200191505b50838103825286818151815260200191508051906020019080838360005b8381101561049b578082015181840152602081019050610480565b50505050905090810190601f1680156104c85780820380516001836020036101000a031916815260200191505b509850505050505050505060405180910390f35b3480156104e857600080fd5b5061050760048036038101908080359060200190929190505050610fe7565b6040518087600019166000191681526020018673ffffffffffffffffffffffffffffffffffffffff1673ffffffffffffffffffffffffffffffffffffffff1681526020018060200180602001858152602001848152602001838103835287818151815260200191508051906020019080838360005b8381101561059757808201518184015260208101905061057c565b50505050905090810190601f1680156105c45780820380516001836020036101000a031916815260200191505b50838103825286818151815260200191508051906020019080838360005b838110156105fd5780820151818401526020810190506105e2565b50505050905090810190601f16801561062a5780820380516001836020036101000a031916815260200191505b509850505050505050505060405180910390f35b34801561064a57600080fd5b50610653611182565b604051808273ffffffffffffffffffffffffffffffffffffffff1673ffffffffffffffffffffffffffffffffffffffff16815260200191505060405180910390f35b3480156106a157600080fd5b5061070660048036038101908080359060200190929190803590602001908201803590602001908080601f01602080910402602001604051908101604052809392919081815260200183838082843782019150505050505091929192905050506111ac565b005b34801561071457600080fd5b5061071d61137e565b604051808273ffffffffffffffffffffffffffffffffffffffff1673ffffffffffffffffffffffffffffffffffffffff16815260200191505060405180910390f35b34801561076b57600080fd5b506107746113a7565b604051808273ffffffffffffffffffffffffffffffffffffffff1673ffffffffffffffffffffffffffffffffffffffff16815260200191505060405180910390f35b3480156107c257600080fd5b506107e1600480360381019080803590602001909291905050506113cc565b60405180826000191660001916815260200191505060405180910390f35b34801561080b57600080fd5b5061082e60048036038101908080356000191690602001909291905050506113f6565b6040518082815260200191505060405180910390f35b34801561085057600080fd5b506108b96004803603810190808035600019169060200190929190803590602001908201803590602001908080601f016020809104026020016040519081016040528093929190818152602001838380828437820191505050505050919291929050505061163d565b604051808273ffffffffffffffffffffffffffffffffffffffff1673ffffffffffffffffffffffffffffffffffffffff16815260200191505060405180910390f35b34801561090757600080fd5b5061092660048036038101908080359060200190929190505050611803565b604051808273ffffffffffffffffffffffffffffffffffffffff1673ffffffffffffffffffffffffffffffffffffffff16815260200191505060405180910390f35b34801561097457600080fd5b506109a9600480360381019080803573ffffffffffffffffffffffffffffffffffffffff169060200190929190505050611836565b005b3480156109b757600080fd5b506109ec600480360381019080803573ffffffffffffffffffffffffffffffffffffffff1690602001909291905050506118d5565b005b6000809054906101000a900473ffffffffffffffffffffffffffffffffffffffff1673ffffffffffffffffffffffffffffffffffffffff163373ffffffffffffffffffffffffffffffffffffffff16141515610a4957600080fd5b80600960006101000a81548173ffffffffffffffffffffffffffffffffffffffff021916908373ffffffffffffffffffffffffffffffffffffffff16021790555050565b6000600854905090565b6000600960009054906101000a900473ffffffffffffffffffffffffffffffffffffffff1673ffffffffffffffffffffffffffffffffffffffff163373ffffffffffffffffffffffffffffffffffffffff16141515610af557600080fd5b819050919050565b8060088190555050565b6060600c82815481101515610b1857fe5b90600052602060002090600602016002018054600181600116156101000203166002900480601f016020809104026020016040519081016040528092919081815260200182805460018160011615610100020316600290048015610bbd5780601f10610b9257610100808354040283529160200191610bbd565b820191906000526020600020905b815481529060010190602001808311610ba057829003601f168201915b50505050509050919050565b6000600960009054906101000a900473ffffffffffffffffffffffffffffffffffffffff1673ffffffffffffffffffffffffffffffffffffffff163373ffffffffffffffffffffffffffffffffffffffff16141515610c2757600080fd5b600c82815481101515610c3657fe5b90600052602060002090600602019050610cf08160000154826003018054600181600116156101000203166002900480601f016020809104026020016040519081016040528092919081815260200182805460018160011615610100020316600290048015610ce65780601f10610cbb57610100808354040283529160200191610ce6565b820191906000526020600020905b815481529060010190602001808311610cc957829003601f168201915b505050505061163d565b73ffffffffffffffffffffffffffffffffffffffff16600b60009054906101000a900473ffffffffffffffffffffffffffffffffffffffff1673ffffffffffffffffffffffffffffffffffffffff16141515610d4b57600080fd5b5050565b6000809054906101000a900473ffffffffffffffffffffffffffffffffffffffff1673ffffffffffffffffffffffffffffffffffffffff163373ffffffffffffffffffffffffffffffffffffffff16141515610daa57600080fd5b80600c83815481101515610dba57fe5b90600052602060002090600602016002019080519060200190610dde929190611a0a565b505050565b60008060009054906101000a900473ffffffffffffffffffffffffffffffffffffffff1673ffffffffffffffffffffffffffffffffffffffff163373ffffffffffffffffffffffffffffffffffffffff16141515610e4057600080fd5b60066000838152602001908152602001600020549050919050565b600d6020528060005260406000206000915090508060000154908060010160009054906101000a900473ffffffffffffffffffffffffffffffffffffffff1690806002018054600181600116156101000203166002900480601f016020809104026020016040519081016040528092919081815260200182805460018160011615610100020316600290048015610f335780601f10610f0857610100808354040283529160200191610f33565b820191906000526020600020905b815481529060010190602001808311610f1657829003601f168201915b505050505090806003018054600181600116156101000203166002900480601f016020809104026020016040519081016040528092919081815260200182805460018160011615610100020316600290048015610fd15780601f10610fa657610100808354040283529160200191610fd1565b820191906000526020600020905b815481529060010190602001808311610fb457829003601f168201915b5050505050908060040154908060050154905086565b600c81815481101515610ff657fe5b90600052602060002090600602016000915090508060000154908060010160009054906101000a900473ffffffffffffffffffffffffffffffffffffffff1690806002018054600181600116156101000203166002900480601f0160208091040260200160405190810160405280929190818152602001828054600181600116156101000203166002900480156110ce5780601f106110a3576101008083540402835291602001916110ce565b820191906000526020600020905b8154815290600101906020018083116110b157829003601f168201915b505050505090806003018054600181600116156101000203166002900480601f01602080910402602001604051908101604052809291908181526020018280546001816001161561010002031660029004801561116c5780601f106111415761010080835404028352916020019161116c565b820191906000526020600020905b81548152906001019060200180831161114f57829003601f168201915b5050505050908060040154908060050154905086565b6000600960009054906101000a900473ffffffffffffffffffffffffffffffffffffffff16905090565b600b60009054906101000a900473ffffffffffffffffffffffffffffffffffffffff1673ffffffffffffffffffffffffffffffffffffffff163373ffffffffffffffffffffffffffffffffffffffff1614151561120857600080fd5b6112ea600c8381548110151561121a57fe5b906000526020600020906006020160000154600c8481548110151561123b57fe5b90600052602060002090600602016002018054600181600116156101000203166002900480601f0160208091040260200160405190810160405280929190818152602001828054600181600116156101000203166002900480156112e05780601f106112b5576101008083540402835291602001916112e0565b820191906000526020600020905b8154815290600101906020018083116112c357829003601f168201915b505050505061163d565b73ffffffffffffffffffffffffffffffffffffffff16600a60009054906101000a900473ffffffffffffffffffffffffffffffffffffffff1673ffffffffffffffffffffffffffffffffffffffff1614151561134557600080fd5b80600c8381548110151561135557fe5b90600052602060002090600602016003019080519060200190611379929190611a0a565b505050565b60008060009054906101000a900473ffffffffffffffffffffffffffffffffffffffff16905090565b6000809054906101000a900473ffffffffffffffffffffffffffffffffffffffff1681565b6000600c828154811015156113dd57fe5b9060005260206000209060060201600001549050919050565b600080600960009054906101000a900473ffffffffffffffffffffffffffffffffffffffff1673ffffffffffffffffffffffffffffffffffffffff163373ffffffffffffffffffffffffffffffffffffffff1614151561145557600080fd5b6001600c60c060405190810160405280866000191681526020013373ffffffffffffffffffffffffffffffffffffffff1681526020016040805190810160405280600381526020017f307830000000000000000000000000000000000000000000000000000000000081525081526020016040805190810160405280600381526020017f30783000000000000000000000000000000000000000000000000000000000008152508152602001600081526020016000815250908060018154018082558091505090600182039060005260206000209060060201600090919290919091506000820151816000019060001916905560208201518160010160006101000a81548173ffffffffffffffffffffffffffffffffffffffff021916908373ffffffffffffffffffffffffffffffffffffffff16021790555060408201518160020190805190602001906115ab929190611a8a565b5060608201518160030190805190602001906115c8929190611a8a565b506080820151816004015560a082015181600501555050039050336001600083815260200190815260200160002060006101000a81548173ffffffffffffffffffffffffffffffffffffffff021916908373ffffffffffffffffffffffffffffffffffffffff16021790555080915050919050565b600080600080606060006041875114151561165757600080fd5b6020870151945060408701519350606087015160001a9250601b8360ff16101561168257601b830192505b6040805190810160405280601c81526020017f19457468657265756d205369676e6564204d6573736167653a0a333200000000815250915081886040518083805190602001908083835b6020831015156116f157805182526020820191506020810190506020830392506116cc565b6001836020036101000a03801982511681845116808217855250505050505090500182600019166000191681526020019250505060405180910390209050601b8360ff1614806117445750601c8360ff16145b151561174f57600080fd5b600181848787604051600081526020016040526040518085600019166000191681526020018460ff1660ff1681526020018360001916600019168152602001826000191660001916815260200194505050505060206040516020810390808403906000865af11580156117c6573d6000803e3d6000fd5b50505060206040510351955060008673ffffffffffffffffffffffffffffffffffffffff16141515156117f857600080fd5b505050505092915050565b60016020528060005260406000206000915054906101000a900473ffffffffffffffffffffffffffffffffffffffff1681565b6000809054906101000a900473ffffffffffffffffffffffffffffffffffffffff1673ffffffffffffffffffffffffffffffffffffffff163373ffffffffffffffffffffffffffffffffffffffff1614151561189157600080fd5b80600b60006101000a81548173ffffffffffffffffffffffffffffffffffffffff021916908373ffffffffffffffffffffffffffffffffffffffff16021790555050565b6000809054906101000a900473ffffffffffffffffffffffffffffffffffffffff1673ffffffffffffffffffffffffffffffffffffffff163373ffffffffffffffffffffffffffffffffffffffff1614151561193057600080fd5b6000809054906101000a900473ffffffffffffffffffffffffffffffffffffffff1673ffffffffffffffffffffffffffffffffffffffff163373ffffffffffffffffffffffffffffffffffffffff1614151561198b57600080fd5b600073ffffffffffffffffffffffffffffffffffffffff168173ffffffffffffffffffffffffffffffffffffffff16141515156119c757600080fd5b806000806101000a81548173ffffffffffffffffffffffffffffffffffffffff021916908373ffffffffffffffffffffffffffffffffffffffff16021790555050565b828054600181600116156101000203166002900490600052602060002090601f016020900481019282601f10611a4b57805160ff1916838001178555611a79565b82800160010185558215611a79579182015b82811115611a78578251825591602001919060010190611a5d565b5b509050611a869190611b0a565b5090565b828054600181600116156101000203166002900490600052602060002090601f016020900481019282601f10611acb57805160ff1916838001178555611af9565b82800160010185558215611af9579182015b82811115611af8578251825591602001919060010190611add565b5b509050611b069190611b0a565b5090565b611b2c91905b80821115611b28576000816000905550600101611b10565b5090565b905600a165627a7a72305820634da2440d114c8f598e4d7241bc41016f44ae3172d6e759a4a18888feebb90b0029",
  "source": "pragma solidity ^0.4.19;\nimport \"./MyVerify.sol\";\nimport \"./Owned.sol\";\n\ncontract Vote is MyVerify {\n\n    //mapping (uint => uint) voteId;\n    mapping(uint => address) public voteToOwner;\n    mapping(address => uint) ownerToVote;\n    mapping(address => uint) ownerVoteCount;\n    mapping(address => bytes32) hashedIdCollections;\n    mapping (uint => address) candidateToAddress;\n    mapping(uint => uint) candidateVoteCounts;\n    mapping(bytes32 => uint) firstSend;\n\n    uint testId=1;\n    \n    address voterAddr;\n    address organizerAddr;\n    address inspectorAddr;\n    \n    //vote \n    struct Vote{\n        bytes32 hashedVote;\n        address voterAddr;\n        bytes signByOrganizer;\n        bytes signByInspector;\n        uint publickey1;\n        uint publickey2;\n    }\n    \n    Vote[] public votes;\n\n    mapping(uint => Vote) public ballots;\n\n    modifier onlyVoter{\n        require(msg.sender == voterAddr);\n        _;\n    }\n\n    modifier onlyInspector{\n        require(msg.sender == inspectorAddr);\n        _;\n    }\n    \n    ///test \n    function test(uint _testId) public {\n        testId = _testId;\n    }\n\n    //test\n    function testreturn() public returns(uint){\n        return testId;\n    }\n    //test\n    function setInspectorAddr(address _inspectorAddr) public onlyOwner{\n        inspectorAddr = _inspectorAddr;\n    }\n    //test///\n    function checkVoterAddr() public returns(address){\n        return voterAddr;\n    }\n\n    //test\n    function getOwner() public returns (address){\n        return ownerAddr;\n    }\n    \n    //test\n    function testVoter(uint count) public onlyVoter returns(uint){\n        return count;\n    }\n\n    //test \n    function getVoteSignByOrganizer(uint _voteId) public returns(bytes){\n        return votes[_voteId].signByOrganizer;\n    }\n\n    //test \n    function getVotehasedVote(uint _voteId) public returns(bytes32){\n        return votes[_voteId].hashedVote;\n    }\n    //set voter address\n    function setVoterAddr(address _voterAddr) public onlyOwner{\n        voterAddr = _voterAddr;\n        //voterAddrs[_index] = _voterAddr;\n    }\n    function createVote(bytes32 _hashedVote) public onlyVoter returns(uint){\n        //票の初期化\n        uint id = votes.push(Vote(_hashedVote,msg.sender,\"0x0\",\"0x0\",0,0))-1;\n        //票と投票者の紐付け\n        voteToOwner[id] = msg.sender;\n        return id;\n    }\n    \n    function signByOrganizer(uint _voteId, bytes _signature) public onlyOwner{\n        /*\n        signatureはクライアント側でweb3を使う必要あり\n        _signature = web3.eth.sign(account, hash)\n        */\n        \n        votes[_voteId].signByOrganizer = _signature;\n\n        //myVote.signByOrganizer = _signature;\n        //これでorganzierのアドレスが返して，それをVoteに入れる\n        /////公開鍵を投票者に送信\n        //RSAで実装\n        //仮の公開鍵として(7,11)を設定しておく\n        // votes[_voteId].publickey1 =7;\n        // votes[_voteId].publickey2 = 11;\n\n        //ECCでの実装はまだ\n        \n    }\n    \n    //signature by Inspector\n    function signByInspector(uint _voteId, bytes _signature) public onlyInspector{\n        //send voter\n        //send public key and vote\n        //signatureはクライアント側でweb3を使う必要あり\n        //web3.eth.sign(account, hash)のaccountをOrganaizerのアドレスで実行して\n        //_signatureに渡すこと\n        \n        //Vote storage myVote = votes[_voteId];\n        //運営の署名の検証\n        require(organizerAddr == ecverify(votes[_voteId].hashedVote,votes[_voteId].signByOrganizer));\n        //投票者の確認\n        //未実装\n        //署名\n        //myVote.signByInspector = _signature;\n        votes[_voteId].signByInspector = _signature;\n    }\n    \n    function voteToCandidate(uint _voteId) public onlyVoter{\n        //Vote.organizerSigの内容をecverifyで確認する\n        Vote storage myVote = votes[_voteId];\n        require(inspectorAddr == ecverify(myVote.hashedVote, myVote.signByInspector));\n\n        //ここから公開鍵で暗号化された投票内容（hashではない）を復号\n        //hashedVoteを復号する.と思ったけど，復号はクライアント側でやってもらう事にする.\n        //candidateVoteCounts[_candidateId]++;\n    }\n\n\n    //count votes\n    function getVote(uint _candidateId) public view onlyOwner returns(uint){\n        return candidateVoteCounts[_candidateId];\n    }\n\n\n}",
  "sourcePath": "/Users/andy/evoting_beta/contracts/Vote.sol",
  "compiler": {
    "name": "solc",
    "version": "0.4.24+commit.e67f0147.Emscripten.clang"
  },
  "schemaVersion": "2.0.1",
  "updatedAt": "2018-09-27T08:07:55.454Z"
}