{
  "contractName": "Vote",
  "abi": [
    {
      "constant": true,
      "inputs": [
        {
          "name": "",
          "type": "address"
        }
      ],
      "name": "voterVoteCount",
      "outputs": [
        {
          "name": "",
          "type": "uint256"
        }
      ],
      "payable": false,
      "stateMutability": "view",
      "type": "function"
    },
    {
      "constant": true,
      "inputs": [
        {
          "name": "",
          "type": "uint256"
        }
      ],
      "name": "ballots",
      "outputs": [
        {
          "name": "hashedVote",
          "type": "bytes32"
        },
        {
          "name": "voterAddr",
          "type": "address"
        },
        {
          "name": "signByOrganizer",
          "type": "bytes"
        },
        {
          "name": "signByInspector",
          "type": "bytes"
        },
        {
          "name": "publickey1",
          "type": "uint256"
        },
        {
          "name": "publickey2",
          "type": "uint256"
        }
      ],
      "payable": false,
      "stateMutability": "view",
      "type": "function"
    },
    {
      "constant": true,
      "inputs": [
        {
          "name": "",
          "type": "uint256"
        }
      ],
      "name": "votes",
      "outputs": [
        {
          "name": "hashedVote",
          "type": "bytes32"
        },
        {
          "name": "voterAddr",
          "type": "address"
        },
        {
          "name": "signByOrganizer",
          "type": "bytes"
        },
        {
          "name": "signByInspector",
          "type": "bytes"
        },
        {
          "name": "publickey1",
          "type": "uint256"
        },
        {
          "name": "publickey2",
          "type": "uint256"
        }
      ],
      "payable": false,
      "stateMutability": "view",
      "type": "function"
    },
    {
      "constant": true,
      "inputs": [],
      "name": "ownerAddr",
      "outputs": [
        {
          "name": "",
          "type": "address"
        }
      ],
      "payable": false,
      "stateMutability": "view",
      "type": "function"
    },
    {
      "constant": true,
      "inputs": [
        {
          "name": "",
          "type": "address"
        }
      ],
      "name": "resultOfHashedVote",
      "outputs": [
        {
          "name": "",
          "type": "bytes"
        }
      ],
      "payable": false,
      "stateMutability": "view",
      "type": "function"
    },
    {
      "constant": true,
      "inputs": [
        {
          "name": "",
          "type": "address"
        }
      ],
      "name": "addressToResult",
      "outputs": [
        {
          "name": "",
          "type": "uint256"
        }
      ],
      "payable": false,
      "stateMutability": "view",
      "type": "function"
    },
    {
      "constant": true,
      "inputs": [
        {
          "name": "",
          "type": "uint256"
        }
      ],
      "name": "voters",
      "outputs": [
        {
          "name": "",
          "type": "address"
        }
      ],
      "payable": false,
      "stateMutability": "view",
      "type": "function"
    },
    {
      "constant": true,
      "inputs": [
        {
          "name": "hash",
          "type": "bytes32"
        },
        {
          "name": "signature",
          "type": "bytes"
        }
      ],
      "name": "ecverify",
      "outputs": [
        {
          "name": "sig_address",
          "type": "address"
        }
      ],
      "payable": false,
      "stateMutability": "pure",
      "type": "function"
    },
    {
      "constant": true,
      "inputs": [
        {
          "name": "",
          "type": "uint256"
        }
      ],
      "name": "voteToOwner",
      "outputs": [
        {
          "name": "",
          "type": "address"
        }
      ],
      "payable": false,
      "stateMutability": "view",
      "type": "function"
    },
    {
      "constant": false,
      "inputs": [
        {
          "name": "_newOwner",
          "type": "address"
        }
      ],
      "name": "transferOwnership",
      "outputs": [],
      "payable": false,
      "stateMutability": "nonpayable",
      "type": "function"
    },
    {
      "inputs": [],
      "payable": false,
      "stateMutability": "nonpayable",
      "type": "constructor"
    },
    {
      "constant": false,
      "inputs": [
        {
          "name": "_voterAddr",
          "type": "address"
        }
      ],
      "name": "checkVoterAddr",
      "outputs": [
        {
          "name": "",
          "type": "bool"
        }
      ],
      "payable": false,
      "stateMutability": "nonpayable",
      "type": "function"
    },
    {
      "constant": false,
      "inputs": [
        {
          "name": "_voterAddr",
          "type": "address"
        }
      ],
      "name": "setVoterAddr",
      "outputs": [],
      "payable": false,
      "stateMutability": "nonpayable",
      "type": "function"
    },
    {
      "constant": false,
      "inputs": [
        {
          "name": "_hashedVote",
          "type": "bytes32"
        }
      ],
      "name": "createVote",
      "outputs": [
        {
          "name": "",
          "type": "uint256"
        }
      ],
      "payable": false,
      "stateMutability": "nonpayable",
      "type": "function"
    },
    {
      "constant": false,
      "inputs": [
        {
          "name": "_voteId",
          "type": "uint256"
        },
        {
          "name": "_signature",
          "type": "bytes"
        }
      ],
      "name": "signByOrganizer",
      "outputs": [],
      "payable": false,
      "stateMutability": "nonpayable",
      "type": "function"
    },
    {
      "constant": false,
      "inputs": [
        {
          "name": "_inspectorAddr",
          "type": "address"
        }
      ],
      "name": "setInspectorAddr",
      "outputs": [],
      "payable": false,
      "stateMutability": "nonpayable",
      "type": "function"
    },
    {
      "constant": false,
      "inputs": [
        {
          "name": "_voteId",
          "type": "uint256"
        },
        {
          "name": "_signature",
          "type": "bytes"
        }
      ],
      "name": "signByInspector",
      "outputs": [],
      "payable": false,
      "stateMutability": "nonpayable",
      "type": "function"
    },
    {
      "constant": false,
      "inputs": [
        {
          "name": "_pkV",
          "type": "bytes"
        },
        {
          "name": "_voteId",
          "type": "uint256"
        }
      ],
      "name": "sendToOrganizer",
      "outputs": [],
      "payable": false,
      "stateMutability": "nonpayable",
      "type": "function"
    },
    {
      "constant": false,
      "inputs": [
        {
          "name": "_address",
          "type": "address"
        },
        {
          "name": "_candidateId",
          "type": "uint256"
        }
      ],
      "name": "voteToCandidate",
      "outputs": [],
      "payable": false,
      "stateMutability": "nonpayable",
      "type": "function"
    },
    {
      "constant": true,
      "inputs": [
        {
          "name": "_voterAddr",
          "type": "address"
        }
      ],
      "name": "viewResult",
      "outputs": [
        {
          "name": "",
          "type": "uint256"
        }
      ],
      "payable": false,
      "stateMutability": "view",
      "type": "function"
    }
  ],
  "bytecode": "0x608060405234801561001057600080fd5b50336000806101000a81548173ffffffffffffffffffffffffffffffffffffffff021916908373ffffffffffffffffffffffffffffffffffffffff16021790555033600660006101000a81548173ffffffffffffffffffffffffffffffffffffffff021916908373ffffffffffffffffffffffffffffffffffffffff160217905550611ee5806100a16000396000f300608060405260043610610107576000357c0100000000000000000000000000000000000000000000000000000000900463ffffffff168063154bace91461010c5780631dd410cf146101635780631e39cadc146101a6578063387c6744146101f357806353b7eb7c14610266578063596215e4146102bd5780635c632b38146103305780635df81330146104925780636804565b146105f457806381ee1f0b146106675780639c675eaa146106c2578063aab1ac9e14610719578063cc3179ee146107d5578063cc9afb471461082c578063da58c7d914610871578063e47c5902146108de578063e6ee3e6414610995578063f0bcedde14610a02578063f2fde38b14610a45575b600080fd5b34801561011857600080fd5b5061014d600480360381019080803573ffffffffffffffffffffffffffffffffffffffff169060200190929190505050610a88565b6040518082815260200191505060405180910390f35b34801561016f57600080fd5b506101a4600480360381019080803573ffffffffffffffffffffffffffffffffffffffff169060200190929190505050610aa0565b005b3480156101b257600080fd5b506101f1600480360381019080803573ffffffffffffffffffffffffffffffffffffffff16906020019092919080359060200190929190505050610b64565b005b3480156101ff57600080fd5b50610264600480360381019080803590602001908201803590602001908080601f016020809104026020016040519081016040528093929190818152602001838380828437820191505050505050919291929080359060200190929190505050610c07565b005b34801561027257600080fd5b506102a7600480360381019080803573ffffffffffffffffffffffffffffffffffffffff169060200190929190505050610f83565b6040518082815260200191505060405180910390f35b3480156102c957600080fd5b5061032e60048036038101908080359060200190929190803590602001908201803590602001908080601f0160208091040260200160405190810160405280939291908181526020018383808284378201915050505050509192919290505050610fcc565b005b34801561033c57600080fd5b5061035b600480360381019080803590602001909291905050506110ac565b6040518087600019166000191681526020018673ffffffffffffffffffffffffffffffffffffffff1673ffffffffffffffffffffffffffffffffffffffff1681526020018060200180602001858152602001848152602001838103835287818151815260200191508051906020019080838360005b838110156103eb5780820151818401526020810190506103d0565b50505050905090810190601f1680156104185780820380516001836020036101000a031916815260200191505b50838103825286818151815260200191508051906020019080838360005b83811015610451578082015181840152602081019050610436565b50505050905090810190601f16801561047e5780820380516001836020036101000a031916815260200191505b509850505050505050505060405180910390f35b34801561049e57600080fd5b506104bd60048036038101908080359060200190929190505050611238565b6040518087600019166000191681526020018673ffffffffffffffffffffffffffffffffffffffff1673ffffffffffffffffffffffffffffffffffffffff1681526020018060200180602001858152602001848152602001838103835287818151815260200191508051906020019080838360005b8381101561054d578082015181840152602081019050610532565b50505050905090810190601f16801561057a5780820380516001836020036101000a031916815260200191505b50838103825286818151815260200191508051906020019080838360005b838110156105b3578082015181840152602081019050610598565b50505050905090810190601f1680156105e05780820380516001836020036101000a031916815260200191505b509850505050505050505060405180910390f35b34801561060057600080fd5b5061066560048036038101908080359060200190929190803590602001908201803590602001908080601f01602080910402602001604051908101604052809392919081815260200183838082843782019150505050505091929192905050506113d3565b005b34801561067357600080fd5b506106a8600480360381019080803573ffffffffffffffffffffffffffffffffffffffff1690602001909291905050506115a5565b604051808215151515815260200191505060405180910390f35b3480156106ce57600080fd5b506106d7611648565b604051808273ffffffffffffffffffffffffffffffffffffffff1673ffffffffffffffffffffffffffffffffffffffff16815260200191505060405180910390f35b34801561072557600080fd5b5061075a600480360381019080803573ffffffffffffffffffffffffffffffffffffffff16906020019092919050505061166d565b6040518080602001828103825283818151815260200191508051906020019080838360005b8381101561079a57808201518184015260208101905061077f565b50505050905090810190601f1680156107c75780820380516001836020036101000a031916815260200191505b509250505060405180910390f35b3480156107e157600080fd5b50610816600480360381019080803573ffffffffffffffffffffffffffffffffffffffff16906020019092919050505061171d565b6040518082815260200191505060405180910390f35b34801561083857600080fd5b5061085b6004803603810190808035600019169060200190929190505050611735565b6040518082815260200191505060405180910390f35b34801561087d57600080fd5b5061089c60048036038101908080359060200190929190505050611989565b604051808273ffffffffffffffffffffffffffffffffffffffff1673ffffffffffffffffffffffffffffffffffffffff16815260200191505060405180910390f35b3480156108ea57600080fd5b506109536004803603810190808035600019169060200190929190803590602001908201803590602001908080601f01602080910402602001604051908101604052809392919081815260200183838082843782019150505050505091929192905050506119c7565b604051808273ffffffffffffffffffffffffffffffffffffffff1673ffffffffffffffffffffffffffffffffffffffff16815260200191505060405180910390f35b3480156109a157600080fd5b506109c060048036038101908080359060200190929190505050611b8d565b604051808273ffffffffffffffffffffffffffffffffffffffff1673ffffffffffffffffffffffffffffffffffffffff16815260200191505060405180910390f35b348015610a0e57600080fd5b50610a43600480360381019080803573ffffffffffffffffffffffffffffffffffffffff169060200190929190505050611bc0565b005b348015610a5157600080fd5b50610a86600480360381019080803573ffffffffffffffffffffffffffffffffffffffff169060200190929190505050611c5f565b005b60026020528060005260406000206000915090505481565b6000809054906101000a900473ffffffffffffffffffffffffffffffffffffffff1673ffffffffffffffffffffffffffffffffffffffff163373ffffffffffffffffffffffffffffffffffffffff16141515610afb57600080fd5b60098190806001815401808255809150509060018203906000526020600020016000909192909190916101000a81548173ffffffffffffffffffffffffffffffffffffffff021916908373ffffffffffffffffffffffffffffffffffffffff1602179055505050565b6000809054906101000a900473ffffffffffffffffffffffffffffffffffffffff1673ffffffffffffffffffffffffffffffffffffffff163373ffffffffffffffffffffffffffffffffffffffff16141515610bbf57600080fd5b80600460008473ffffffffffffffffffffffffffffffffffffffff1673ffffffffffffffffffffffffffffffffffffffff168152602001908152602001600020819055505050565b600560009054906101000a900473ffffffffffffffffffffffffffffffffffffffff1673ffffffffffffffffffffffffffffffffffffffff163373ffffffffffffffffffffffffffffffffffffffff16141515610c6357600080fd5b610d45600882815481101515610c7557fe5b906000526020600020906006020160000154600883815481101515610c9657fe5b90600052602060002090600602016002018054600181600116156101000203166002900480601f016020809104026020016040519081016040528092919081815260200182805460018160011615610100020316600290048015610d3b5780601f10610d1057610100808354040283529160200191610d3b565b820191906000526020600020905b815481529060010190602001808311610d1e57829003601f168201915b50505050506119c7565b73ffffffffffffffffffffffffffffffffffffffff16600660009054906101000a900473ffffffffffffffffffffffffffffffffffffffff1673ffffffffffffffffffffffffffffffffffffffff16141515610da057600080fd5b610e82600882815481101515610db257fe5b906000526020600020906006020160000154600883815481101515610dd357fe5b90600052602060002090600602016003018054600181600116156101000203166002900480601f016020809104026020016040519081016040528092919081815260200182805460018160011615610100020316600290048015610e785780601f10610e4d57610100808354040283529160200191610e78565b820191906000526020600020905b815481529060010190602001808311610e5b57829003601f168201915b50505050506119c7565b73ffffffffffffffffffffffffffffffffffffffff16600760009054906101000a900473ffffffffffffffffffffffffffffffffffffffff1673ffffffffffffffffffffffffffffffffffffffff16141515610edd57600080fd5b6001600260003373ffffffffffffffffffffffffffffffffffffffff1673ffffffffffffffffffffffffffffffffffffffff16815260200190815260200160002054141515610f2b57600080fd5b81600360003373ffffffffffffffffffffffffffffffffffffffff1673ffffffffffffffffffffffffffffffffffffffff1681526020019081526020016000209080519060200190610f7e929190611d94565b505050565b6000600460008373ffffffffffffffffffffffffffffffffffffffff1673ffffffffffffffffffffffffffffffffffffffff168152602001908152602001600020549050919050565b6000809054906101000a900473ffffffffffffffffffffffffffffffffffffffff1673ffffffffffffffffffffffffffffffffffffffff163373ffffffffffffffffffffffffffffffffffffffff1614151561102757600080fd5b8060088381548110151561103757fe5b9060005260206000209060060201600201908051906020019061105b929190611d94565b50600760088381548110151561106d57fe5b906000526020600020906006020160040181905550600b60088381548110151561109357fe5b9060005260206000209060060201600501819055505050565b600a6020528060005260406000206000915090508060000154908060010160009054906101000a900473ffffffffffffffffffffffffffffffffffffffff1690806002018054600181600116156101000203166002900480601f0160208091040260200160405190810160405280929190818152602001828054600181600116156101000203166002900480156111845780601f1061115957610100808354040283529160200191611184565b820191906000526020600020905b81548152906001019060200180831161116757829003601f168201915b505050505090806003018054600181600116156101000203166002900480601f0160208091040260200160405190810160405280929190818152602001828054600181600116156101000203166002900480156112225780601f106111f757610100808354040283529160200191611222565b820191906000526020600020905b81548152906001019060200180831161120557829003601f168201915b5050505050908060040154908060050154905086565b60088181548110151561124757fe5b90600052602060002090600602016000915090508060000154908060010160009054906101000a900473ffffffffffffffffffffffffffffffffffffffff1690806002018054600181600116156101000203166002900480601f01602080910402602001604051908101604052809291908181526020018280546001816001161561010002031660029004801561131f5780601f106112f45761010080835404028352916020019161131f565b820191906000526020600020905b81548152906001019060200180831161130257829003601f168201915b505050505090806003018054600181600116156101000203166002900480601f0160208091040260200160405190810160405280929190818152602001828054600181600116156101000203166002900480156113bd5780601f10611392576101008083540402835291602001916113bd565b820191906000526020600020905b8154815290600101906020018083116113a057829003601f168201915b5050505050908060040154908060050154905086565b600760009054906101000a900473ffffffffffffffffffffffffffffffffffffffff1673ffffffffffffffffffffffffffffffffffffffff163373ffffffffffffffffffffffffffffffffffffffff1614151561142f57600080fd5b61151160088381548110151561144157fe5b90600052602060002090600602016000015460088481548110151561146257fe5b90600052602060002090600602016002018054600181600116156101000203166002900480601f0160208091040260200160405190810160405280929190818152602001828054600181600116156101000203166002900480156115075780601f106114dc57610100808354040283529160200191611507565b820191906000526020600020905b8154815290600101906020018083116114ea57829003601f168201915b50505050506119c7565b73ffffffffffffffffffffffffffffffffffffffff16600660009054906101000a900473ffffffffffffffffffffffffffffffffffffffff1673ffffffffffffffffffffffffffffffffffffffff1614151561156c57600080fd5b8060088381548110151561157c57fe5b906000526020600020906006020160030190805190602001906115a0929190611d94565b505050565b600080600090505b60098054905081101561163d578273ffffffffffffffffffffffffffffffffffffffff166009828154811015156115e057fe5b9060005260206000200160009054906101000a900473ffffffffffffffffffffffffffffffffffffffff1673ffffffffffffffffffffffffffffffffffffffff1614156116305760019150611642565b80806001019150506115ad565b600091505b50919050565b6000809054906101000a900473ffffffffffffffffffffffffffffffffffffffff1681565b60036020528060005260406000206000915090508054600181600116156101000203166002900480601f0160208091040260200160405190810160405280929190818152602001828054600181600116156101000203166002900480156117155780601f106116ea57610100808354040283529160200191611715565b820191906000526020600020905b8154815290600101906020018083116116f857829003601f168201915b505050505081565b60046020528060005260406000206000915090505481565b60008060011515611745336115a5565b151514151561175357600080fd5b6001600860c060405190810160405280866000191681526020013373ffffffffffffffffffffffffffffffffffffffff1681526020016040805190810160405280600381526020017f307830000000000000000000000000000000000000000000000000000000000081525081526020016040805190810160405280600381526020017f30783000000000000000000000000000000000000000000000000000000000008152508152602001600081526020016000815250908060018154018082558091505090600182039060005260206000209060060201600090919290919091506000820151816000019060001916905560208201518160010160006101000a81548173ffffffffffffffffffffffffffffffffffffffff021916908373ffffffffffffffffffffffffffffffffffffffff16021790555060408201518160020190805190602001906118a9929190611e14565b5060608201518160030190805190602001906118c6929190611e14565b506080820151816004015560a082015181600501555050039050336001600083815260200190815260200160002060006101000a81548173ffffffffffffffffffffffffffffffffffffffff021916908373ffffffffffffffffffffffffffffffffffffffff1602179055506001600260003373ffffffffffffffffffffffffffffffffffffffff1673ffffffffffffffffffffffffffffffffffffffff1681526020019081526020016000206000828254019250508190555080915050919050565b60098181548110151561199857fe5b906000526020600020016000915054906101000a900473ffffffffffffffffffffffffffffffffffffffff1681565b60008060008060606000604187511415156119e157600080fd5b6020870151945060408701519350606087015160001a9250601b8360ff161015611a0c57601b830192505b6040805190810160405280601c81526020017f19457468657265756d205369676e6564204d6573736167653a0a333200000000815250915081886040518083805190602001908083835b602083101515611a7b5780518252602082019150602081019050602083039250611a56565b6001836020036101000a03801982511681845116808217855250505050505090500182600019166000191681526020019250505060405180910390209050601b8360ff161480611ace5750601c8360ff16145b1515611ad957600080fd5b600181848787604051600081526020016040526040518085600019166000191681526020018460ff1660ff1681526020018360001916600019168152602001826000191660001916815260200194505050505060206040516020810390808403906000865af1158015611b50573d6000803e3d6000fd5b50505060206040510351955060008673ffffffffffffffffffffffffffffffffffffffff1614151515611b8257600080fd5b505050505092915050565b60016020528060005260406000206000915054906101000a900473ffffffffffffffffffffffffffffffffffffffff1681565b6000809054906101000a900473ffffffffffffffffffffffffffffffffffffffff1673ffffffffffffffffffffffffffffffffffffffff163373ffffffffffffffffffffffffffffffffffffffff16141515611c1b57600080fd5b80600760006101000a81548173ffffffffffffffffffffffffffffffffffffffff021916908373ffffffffffffffffffffffffffffffffffffffff16021790555050565b6000809054906101000a900473ffffffffffffffffffffffffffffffffffffffff1673ffffffffffffffffffffffffffffffffffffffff163373ffffffffffffffffffffffffffffffffffffffff16141515611cba57600080fd5b6000809054906101000a900473ffffffffffffffffffffffffffffffffffffffff1673ffffffffffffffffffffffffffffffffffffffff163373ffffffffffffffffffffffffffffffffffffffff16141515611d1557600080fd5b600073ffffffffffffffffffffffffffffffffffffffff168173ffffffffffffffffffffffffffffffffffffffff1614151515611d5157600080fd5b806000806101000a81548173ffffffffffffffffffffffffffffffffffffffff021916908373ffffffffffffffffffffffffffffffffffffffff16021790555050565b828054600181600116156101000203166002900490600052602060002090601f016020900481019282601f10611dd557805160ff1916838001178555611e03565b82800160010185558215611e03579182015b82811115611e02578251825591602001919060010190611de7565b5b509050611e109190611e94565b5090565b828054600181600116156101000203166002900490600052602060002090601f016020900481019282601f10611e5557805160ff1916838001178555611e83565b82800160010185558215611e83579182015b82811115611e82578251825591602001919060010190611e67565b5b509050611e909190611e94565b5090565b611eb691905b80821115611eb2576000816000905550600101611e9a565b5090565b905600a165627a7a72305820de4af31cdb55c3bfc418de871a3faa8498611c5182af41dc9802ba6962bc8b1e0029",
  "source": "pragma solidity ^0.4.19;\nimport \"./MyVerify.sol\";\nimport \"./Owned.sol\";\n\ncontract Vote is MyVerify {\n\n    //mapping (uint => uint) voteId;\n    mapping(uint => address) public voteToOwner;\n    mapping(address => uint) public voterVoteCount;\n    mapping(address => bytes) public resultOfHashedVote;\n    mapping(address => uint) public addressToResult;\n    \n    address voterAddr;\n    address organizerAddr;\n    address inspectorAddr;\n\n    constructor()  {\n        organizerAddr = msg.sender;\n    }\n    \n    //vote \n    struct Vote{\n        bytes32 hashedVote;\n        address voterAddr;\n        bytes signByOrganizer;\n        bytes signByInspector;\n        uint publickey1;\n        uint publickey2;\n    }\n    \n    Vote[] public votes;\n\n    address[] public voters;\n\n    mapping(uint => Vote) public ballots;\n\n    modifier onlyVoter{\n        require(msg.sender == voterAddr);\n        _;\n    }\n\n    modifier onlyInspector{\n        require(msg.sender == inspectorAddr);\n        _;\n    }\n\n    function checkVoterAddr(address _voterAddr) public returns(bool){\n        for(uint i = 0; i < voters.length; i++){\n            if(voters[i] == _voterAddr){\n                return true;\n            }\n        }\n        return false;\n    }\n    \n    //set voter address\n    function setVoterAddr(address _voterAddr) public onlyOwner{\n        voters.push(_voterAddr);\n    }\n\n\n    function createVote(bytes32 _hashedVote) public  returns(uint){\n\n        require(checkVoterAddr(msg.sender) == true);\n        //票の初期化\n        uint id = votes.push(Vote(_hashedVote,msg.sender,\"0x0\",\"0x0\",0,0))-1;\n        //票と投票者の紐付け\n        voteToOwner[id] = msg.sender;\n\n        voterVoteCount[msg.sender] += 1;\n\n        return id;\n    }\n    \n    function signByOrganizer(uint _voteId, bytes _signature) public onlyOwner{\n        /*\n        signatureはクライアント側でweb3を使う必要あり\n        _signature = web3.eth.sign(account, hash)\n        */\n        \n        votes[_voteId].signByOrganizer = _signature;\n\n        //これでorganzierのアドレスが返して，それをVoteに入れる\n        /////公開鍵を投票者に送信\n        //RSAで実装\n        //仮の公開鍵として(7,11)を設定しておく\n        votes[_voteId].publickey1 = 7;\n        votes[_voteId].publickey2 = 11;\n\n        //ECCでの実装はまだ\n        \n    }\n\n    //set inspector address\n    function setInspectorAddr(address _inspectorAddr) public onlyOwner{\n        inspectorAddr = _inspectorAddr;\n    }\n    \n    //signature by Inspector\n    function signByInspector(uint _voteId, bytes _signature) public onlyInspector{\n        //send voter\n        //send public key and vote\n        //signatureはクライアント側でweb3を使う必要あり\n        //web3.eth.sign(account, hash)のaccountをOrganaizerのアドレスで実行して\n        //_signatureに渡すこと\n        \n        require(organizerAddr == ecverify(votes[_voteId].hashedVote,votes[_voteId].signByOrganizer));\n        votes[_voteId].signByInspector = _signature;\n    }\n    \n    function sendToOrganizer(bytes _pkV, uint _voteId) public onlyVoter{\n        //Vote.organizerSigの内容をecverifyで確認する\n       //Vote storage myVote = votes[_voteId];\n\n        // check sign\n        require(organizerAddr == ecverify(votes[_voteId].hashedVote,votes[_voteId].signByOrganizer));\n        require(inspectorAddr == ecverify(votes[_voteId].hashedVote, votes[_voteId].signByInspector));\n\n        // check vote count\n        require(voterVoteCount[msg.sender] == 1);\n\n        resultOfHashedVote[msg.sender] = _pkV;\n    }\n\n    // organizer send address and candidateId \n    function voteToCandidate(address _address, uint _candidateId) public onlyOwner{\n        addressToResult[_address] = _candidateId;\n    }\n\n    // everyone can view result\n    function viewResult(address _voterAddr) public view returns(uint){\n        return addressToResult[_voterAddr];\n    }\n\n}",
  "sourcePath": "/Users/andy/evoting_beta/contracts/Vote.sol",
  "compiler": {
    "name": "solc",
    "version": "0.4.24+commit.e67f0147.Emscripten.clang"
  },
  "schemaVersion": "2.0.1",
  "updatedAt": "2018-11-07T08:40:42.302Z"
}