{
  "contractName": "Vote",
  "abi": [
    {
      "constant": true,
      "inputs": [
        {
          "name": "",
          "type": "address"
        }
      ],
      "name": "voterVoteCount",
      "outputs": [
        {
          "name": "",
          "type": "uint256"
        }
      ],
      "payable": false,
      "stateMutability": "view",
      "type": "function"
    },
    {
      "constant": true,
      "inputs": [
        {
          "name": "",
          "type": "uint256"
        }
      ],
      "name": "ballots",
      "outputs": [
        {
          "name": "hashedVote",
          "type": "bytes32"
        },
        {
          "name": "voterAddr",
          "type": "address"
        },
        {
          "name": "signByOrganizer",
          "type": "bytes"
        },
        {
          "name": "signByInspector",
          "type": "bytes"
        },
        {
          "name": "publickey1",
          "type": "uint256"
        },
        {
          "name": "publickey2",
          "type": "uint256"
        }
      ],
      "payable": false,
      "stateMutability": "view",
      "type": "function"
    },
    {
      "constant": true,
      "inputs": [
        {
          "name": "",
          "type": "uint256"
        }
      ],
      "name": "votes",
      "outputs": [
        {
          "name": "hashedVote",
          "type": "bytes32"
        },
        {
          "name": "voterAddr",
          "type": "address"
        },
        {
          "name": "signByOrganizer",
          "type": "bytes"
        },
        {
          "name": "signByInspector",
          "type": "bytes"
        },
        {
          "name": "publickey1",
          "type": "uint256"
        },
        {
          "name": "publickey2",
          "type": "uint256"
        }
      ],
      "payable": false,
      "stateMutability": "view",
      "type": "function"
    },
    {
      "constant": true,
      "inputs": [],
      "name": "ownerAddr",
      "outputs": [
        {
          "name": "",
          "type": "address"
        }
      ],
      "payable": false,
      "stateMutability": "view",
      "type": "function"
    },
    {
      "constant": true,
      "inputs": [
        {
          "name": "hash",
          "type": "bytes32"
        },
        {
          "name": "signature",
          "type": "bytes"
        }
      ],
      "name": "ecverify",
      "outputs": [
        {
          "name": "sig_address",
          "type": "address"
        }
      ],
      "payable": false,
      "stateMutability": "pure",
      "type": "function"
    },
    {
      "constant": true,
      "inputs": [
        {
          "name": "",
          "type": "uint256"
        }
      ],
      "name": "voteToOwner",
      "outputs": [
        {
          "name": "",
          "type": "address"
        }
      ],
      "payable": false,
      "stateMutability": "view",
      "type": "function"
    },
    {
      "constant": false,
      "inputs": [
        {
          "name": "_newOwner",
          "type": "address"
        }
      ],
      "name": "transferOwnership",
      "outputs": [],
      "payable": false,
      "stateMutability": "nonpayable",
      "type": "function"
    },
    {
      "inputs": [],
      "payable": false,
      "stateMutability": "nonpayable",
      "type": "constructor"
    },
    {
      "constant": false,
      "inputs": [
        {
          "name": "_testId",
          "type": "uint256"
        }
      ],
      "name": "test",
      "outputs": [],
      "payable": false,
      "stateMutability": "nonpayable",
      "type": "function"
    },
    {
      "constant": false,
      "inputs": [],
      "name": "testreturn",
      "outputs": [
        {
          "name": "",
          "type": "uint256"
        }
      ],
      "payable": false,
      "stateMutability": "nonpayable",
      "type": "function"
    },
    {
      "constant": false,
      "inputs": [
        {
          "name": "_inspectorAddr",
          "type": "address"
        }
      ],
      "name": "setInspectorAddr",
      "outputs": [],
      "payable": false,
      "stateMutability": "nonpayable",
      "type": "function"
    },
    {
      "constant": false,
      "inputs": [],
      "name": "checkVoterAddr",
      "outputs": [
        {
          "name": "",
          "type": "address"
        }
      ],
      "payable": false,
      "stateMutability": "nonpayable",
      "type": "function"
    },
    {
      "constant": false,
      "inputs": [],
      "name": "getOwner",
      "outputs": [
        {
          "name": "",
          "type": "address"
        }
      ],
      "payable": false,
      "stateMutability": "nonpayable",
      "type": "function"
    },
    {
      "constant": false,
      "inputs": [
        {
          "name": "count",
          "type": "uint256"
        }
      ],
      "name": "testVoter",
      "outputs": [
        {
          "name": "",
          "type": "uint256"
        }
      ],
      "payable": false,
      "stateMutability": "nonpayable",
      "type": "function"
    },
    {
      "constant": false,
      "inputs": [
        {
          "name": "_voteId",
          "type": "uint256"
        }
      ],
      "name": "getVoteSignByOrganizer",
      "outputs": [
        {
          "name": "",
          "type": "bytes"
        }
      ],
      "payable": false,
      "stateMutability": "nonpayable",
      "type": "function"
    },
    {
      "constant": false,
      "inputs": [
        {
          "name": "_voteId",
          "type": "uint256"
        }
      ],
      "name": "getVoteFromId",
      "outputs": [
        {
          "name": "",
          "type": "bytes32"
        },
        {
          "name": "",
          "type": "address"
        },
        {
          "name": "",
          "type": "bytes"
        },
        {
          "name": "",
          "type": "bytes"
        },
        {
          "name": "",
          "type": "uint256"
        },
        {
          "name": "",
          "type": "uint256"
        }
      ],
      "payable": false,
      "stateMutability": "nonpayable",
      "type": "function"
    },
    {
      "constant": false,
      "inputs": [],
      "name": "getOrganizerAddr",
      "outputs": [
        {
          "name": "",
          "type": "address"
        }
      ],
      "payable": false,
      "stateMutability": "nonpayable",
      "type": "function"
    },
    {
      "constant": false,
      "inputs": [
        {
          "name": "_voterAddr",
          "type": "address"
        }
      ],
      "name": "setVoterAddr",
      "outputs": [],
      "payable": false,
      "stateMutability": "nonpayable",
      "type": "function"
    },
    {
      "constant": false,
      "inputs": [
        {
          "name": "_hashedVote",
          "type": "bytes32"
        }
      ],
      "name": "createVote",
      "outputs": [
        {
          "name": "",
          "type": "uint256"
        }
      ],
      "payable": false,
      "stateMutability": "nonpayable",
      "type": "function"
    },
    {
      "constant": false,
      "inputs": [
        {
          "name": "_voteId",
          "type": "uint256"
        },
        {
          "name": "_signature",
          "type": "bytes"
        }
      ],
      "name": "signByOrganizer",
      "outputs": [],
      "payable": false,
      "stateMutability": "nonpayable",
      "type": "function"
    },
    {
      "constant": false,
      "inputs": [
        {
          "name": "_voteId",
          "type": "uint256"
        },
        {
          "name": "_signature",
          "type": "bytes"
        }
      ],
      "name": "signByInspector",
      "outputs": [],
      "payable": false,
      "stateMutability": "nonpayable",
      "type": "function"
    },
    {
      "constant": false,
      "inputs": [
        {
          "name": "_pkV",
          "type": "bytes"
        },
        {
          "name": "_voteId",
          "type": "uint256"
        }
      ],
      "name": "sendToOrganizer",
      "outputs": [],
      "payable": false,
      "stateMutability": "nonpayable",
      "type": "function"
    },
    {
      "constant": false,
      "inputs": [
        {
          "name": "_address",
          "type": "address"
        },
        {
          "name": "_candidateId",
          "type": "uint256"
        }
      ],
      "name": "voteToCandidate",
      "outputs": [],
      "payable": false,
      "stateMutability": "nonpayable",
      "type": "function"
    },
    {
      "constant": false,
      "inputs": [
        {
          "name": "_voterAddr",
          "type": "address"
        }
      ],
      "name": "viewResult",
      "outputs": [
        {
          "name": "",
          "type": "uint256"
        }
      ],
      "payable": false,
      "stateMutability": "nonpayable",
      "type": "function"
    }
  ],
  "bytecode": "0x6080604052600160055534801561001557600080fd5b50336000806101000a81548173ffffffffffffffffffffffffffffffffffffffff021916908373ffffffffffffffffffffffffffffffffffffffff16021790555033600760006101000a81548173ffffffffffffffffffffffffffffffffffffffff021916908373ffffffffffffffffffffffffffffffffffffffff1602179055506122de806100a66000396000f300608060405260043610610133576000357c0100000000000000000000000000000000000000000000000000000000900463ffffffff168063154bace9146101385780631dd410cf1461018f5780631e39cadc146101d2578063201497ef1461021f578063241108d11461024a57806329e99f071461028b578063387c6744146102b8578063533e4bd11461032b57806353b7eb7c146103d1578063596215e4146104285780635c632b381461049b5780635df81330146105fd57806363b41e051461075f5780636804565b146107b6578063893d20e8146108295780639c675eaa14610880578063ab00443d146108d7578063c86382ac1461092e578063cc9afb4714610a90578063e47c590214610ad5578063e6ee3e6414610b8c578063f0bcedde14610bf9578063f2fde38b14610c3c575b600080fd5b34801561014457600080fd5b50610179600480360381019080803573ffffffffffffffffffffffffffffffffffffffff169060200190929190505050610c7f565b6040518082815260200191505060405180910390f35b34801561019b57600080fd5b506101d0600480360381019080803573ffffffffffffffffffffffffffffffffffffffff169060200190929190505050610c97565b005b3480156101de57600080fd5b5061021d600480360381019080803573ffffffffffffffffffffffffffffffffffffffff16906020019092919080359060200190929190505050610d36565b005b34801561022b57600080fd5b50610234610dd9565b6040518082815260200191505060405180910390f35b34801561025657600080fd5b5061027560048036038101908080359060200190929190505050610de3565b6040518082815260200191505060405180910390f35b34801561029757600080fd5b506102b660048036038101908080359060200190929190505050610e49565b005b3480156102c457600080fd5b50610329600480360381019080803590602001908201803590602001908080601f016020809104026020016040519081016040528093929190818152602001838380828437820191505050505050919291929080359060200190929190505050610e53565b005b34801561033757600080fd5b506103566004803603810190808035906020019092919050505061116b565b6040518080602001828103825283818151815260200191508051906020019080838360005b8381101561039657808201518184015260208101905061037b565b50505050905090810190601f1680156103c35780820380516001836020036101000a031916815260200191505b509250505060405180910390f35b3480156103dd57600080fd5b50610412600480360381019080803573ffffffffffffffffffffffffffffffffffffffff16906020019092919050505061122d565b6040518082815260200191505060405180910390f35b34801561043457600080fd5b5061049960048036038101908080359060200190929190803590602001908201803590602001908080601f0160208091040260200160405190810160405280939291908181526020018383808284378201915050505050509192919290505050611276565b005b3480156104a757600080fd5b506104c660048036038101908080359060200190929190505050611356565b6040518087600019166000191681526020018673ffffffffffffffffffffffffffffffffffffffff1673ffffffffffffffffffffffffffffffffffffffff1681526020018060200180602001858152602001848152602001838103835287818151815260200191508051906020019080838360005b8381101561055657808201518184015260208101905061053b565b50505050905090810190601f1680156105835780820380516001836020036101000a031916815260200191505b50838103825286818151815260200191508051906020019080838360005b838110156105bc5780820151818401526020810190506105a1565b50505050905090810190601f1680156105e95780820380516001836020036101000a031916815260200191505b509850505050505050505060405180910390f35b34801561060957600080fd5b50610628600480360381019080803590602001909291905050506114e2565b6040518087600019166000191681526020018673ffffffffffffffffffffffffffffffffffffffff1673ffffffffffffffffffffffffffffffffffffffff1681526020018060200180602001858152602001848152602001838103835287818151815260200191508051906020019080838360005b838110156106b857808201518184015260208101905061069d565b50505050905090810190601f1680156106e55780820380516001836020036101000a031916815260200191505b50838103825286818151815260200191508051906020019080838360005b8381101561071e578082015181840152602081019050610703565b50505050905090810190601f16801561074b5780820380516001836020036101000a031916815260200191505b509850505050505050505060405180910390f35b34801561076b57600080fd5b5061077461167d565b604051808273ffffffffffffffffffffffffffffffffffffffff1673ffffffffffffffffffffffffffffffffffffffff16815260200191505060405180910390f35b3480156107c257600080fd5b5061082760048036038101908080359060200190929190803590602001908201803590602001908080601f01602080910402602001604051908101604052809392919081815260200183838082843782019150505050505091929192905050506116a7565b005b34801561083557600080fd5b5061083e611879565b604051808273ffffffffffffffffffffffffffffffffffffffff1673ffffffffffffffffffffffffffffffffffffffff16815260200191505060405180910390f35b34801561088c57600080fd5b506108956118a2565b604051808273ffffffffffffffffffffffffffffffffffffffff1673ffffffffffffffffffffffffffffffffffffffff16815260200191505060405180910390f35b3480156108e357600080fd5b506108ec6118c7565b604051808273ffffffffffffffffffffffffffffffffffffffff1673ffffffffffffffffffffffffffffffffffffffff16815260200191505060405180910390f35b34801561093a57600080fd5b50610959600480360381019080803590602001909291905050506118f1565b6040518087600019166000191681526020018673ffffffffffffffffffffffffffffffffffffffff1673ffffffffffffffffffffffffffffffffffffffff1681526020018060200180602001858152602001848152602001838103835287818151815260200191508051906020019080838360005b838110156109e95780820151818401526020810190506109ce565b50505050905090810190601f168015610a165780820380516001836020036101000a031916815260200191505b50838103825286818151815260200191508051906020019080838360005b83811015610a4f578082015181840152602081019050610a34565b50505050905090810190601f168015610a7c5780820380516001836020036101000a031916815260200191505b509850505050505050505060405180910390f35b348015610a9c57600080fd5b50610abf6004803603810190808035600019169060200190929190505050611b2b565b6040518082815260200191505060405180910390f35b348015610ae157600080fd5b50610b4a6004803603810190808035600019169060200190929190803590602001908201803590602001908080601f0160208091040260200160405190810160405280939291908181526020018383808284378201915050505050509192919290505050611dc0565b604051808273ffffffffffffffffffffffffffffffffffffffff1673ffffffffffffffffffffffffffffffffffffffff16815260200191505060405180910390f35b348015610b9857600080fd5b50610bb760048036038101908080359060200190929190505050611f86565b604051808273ffffffffffffffffffffffffffffffffffffffff1673ffffffffffffffffffffffffffffffffffffffff16815260200191505060405180910390f35b348015610c0557600080fd5b50610c3a600480360381019080803573ffffffffffffffffffffffffffffffffffffffff169060200190929190505050611fb9565b005b348015610c4857600080fd5b50610c7d600480360381019080803573ffffffffffffffffffffffffffffffffffffffff169060200190929190505050612058565b005b60026020528060005260406000206000915090505481565b6000809054906101000a900473ffffffffffffffffffffffffffffffffffffffff1673ffffffffffffffffffffffffffffffffffffffff163373ffffffffffffffffffffffffffffffffffffffff16141515610cf257600080fd5b80600660006101000a81548173ffffffffffffffffffffffffffffffffffffffff021916908373ffffffffffffffffffffffffffffffffffffffff16021790555050565b6000809054906101000a900473ffffffffffffffffffffffffffffffffffffffff1673ffffffffffffffffffffffffffffffffffffffff163373ffffffffffffffffffffffffffffffffffffffff16141515610d9157600080fd5b80600460008473ffffffffffffffffffffffffffffffffffffffff1673ffffffffffffffffffffffffffffffffffffffff168152602001908152602001600020819055505050565b6000600554905090565b6000600660009054906101000a900473ffffffffffffffffffffffffffffffffffffffff1673ffffffffffffffffffffffffffffffffffffffff163373ffffffffffffffffffffffffffffffffffffffff16141515610e4157600080fd5b819050919050565b8060058190555050565b6000600660009054906101000a900473ffffffffffffffffffffffffffffffffffffffff1673ffffffffffffffffffffffffffffffffffffffff163373ffffffffffffffffffffffffffffffffffffffff16141515610eb157600080fd5b600982815481101515610ec057fe5b90600052602060002090600602019050610fb2600983815481101515610ee257fe5b906000526020600020906006020160000154600984815481101515610f0357fe5b90600052602060002090600602016002018054600181600116156101000203166002900480601f016020809104026020016040519081016040528092919081815260200182805460018160011615610100020316600290048015610fa85780601f10610f7d57610100808354040283529160200191610fa8565b820191906000526020600020905b815481529060010190602001808311610f8b57829003601f168201915b5050505050611dc0565b73ffffffffffffffffffffffffffffffffffffffff16600760009054906101000a900473ffffffffffffffffffffffffffffffffffffffff1673ffffffffffffffffffffffffffffffffffffffff1614151561100d57600080fd5b6110b78160000154826003018054600181600116156101000203166002900480601f0160208091040260200160405190810160405280929190818152602001828054600181600116156101000203166002900480156110ad5780601f10611082576101008083540402835291602001916110ad565b820191906000526020600020905b81548152906001019060200180831161109057829003601f168201915b5050505050611dc0565b73ffffffffffffffffffffffffffffffffffffffff16600860009054906101000a900473ffffffffffffffffffffffffffffffffffffffff1673ffffffffffffffffffffffffffffffffffffffff1614151561111257600080fd5b82600360003373ffffffffffffffffffffffffffffffffffffffff1673ffffffffffffffffffffffffffffffffffffffff168152602001908152602001600020908051906020019061116592919061218d565b50505050565b606060098281548110151561117c57fe5b90600052602060002090600602016002018054600181600116156101000203166002900480601f0160208091040260200160405190810160405280929190818152602001828054600181600116156101000203166002900480156112215780601f106111f657610100808354040283529160200191611221565b820191906000526020600020905b81548152906001019060200180831161120457829003601f168201915b50505050509050919050565b6000600460008373ffffffffffffffffffffffffffffffffffffffff1673ffffffffffffffffffffffffffffffffffffffff168152602001908152602001600020549050919050565b6000809054906101000a900473ffffffffffffffffffffffffffffffffffffffff1673ffffffffffffffffffffffffffffffffffffffff163373ffffffffffffffffffffffffffffffffffffffff161415156112d157600080fd5b806009838154811015156112e157fe5b9060005260206000209060060201600201908051906020019061130592919061218d565b50600760098381548110151561131757fe5b906000526020600020906006020160040181905550600b60098381548110151561133d57fe5b9060005260206000209060060201600501819055505050565b600a6020528060005260406000206000915090508060000154908060010160009054906101000a900473ffffffffffffffffffffffffffffffffffffffff1690806002018054600181600116156101000203166002900480601f01602080910402602001604051908101604052809291908181526020018280546001816001161561010002031660029004801561142e5780601f106114035761010080835404028352916020019161142e565b820191906000526020600020905b81548152906001019060200180831161141157829003601f168201915b505050505090806003018054600181600116156101000203166002900480601f0160208091040260200160405190810160405280929190818152602001828054600181600116156101000203166002900480156114cc5780601f106114a1576101008083540402835291602001916114cc565b820191906000526020600020905b8154815290600101906020018083116114af57829003601f168201915b5050505050908060040154908060050154905086565b6009818154811015156114f157fe5b90600052602060002090600602016000915090508060000154908060010160009054906101000a900473ffffffffffffffffffffffffffffffffffffffff1690806002018054600181600116156101000203166002900480601f0160208091040260200160405190810160405280929190818152602001828054600181600116156101000203166002900480156115c95780601f1061159e576101008083540402835291602001916115c9565b820191906000526020600020905b8154815290600101906020018083116115ac57829003601f168201915b505050505090806003018054600181600116156101000203166002900480601f0160208091040260200160405190810160405280929190818152602001828054600181600116156101000203166002900480156116675780601f1061163c57610100808354040283529160200191611667565b820191906000526020600020905b81548152906001019060200180831161164a57829003601f168201915b5050505050908060040154908060050154905086565b6000600660009054906101000a900473ffffffffffffffffffffffffffffffffffffffff16905090565b600860009054906101000a900473ffffffffffffffffffffffffffffffffffffffff1673ffffffffffffffffffffffffffffffffffffffff163373ffffffffffffffffffffffffffffffffffffffff1614151561170357600080fd5b6117e560098381548110151561171557fe5b90600052602060002090600602016000015460098481548110151561173657fe5b90600052602060002090600602016002018054600181600116156101000203166002900480601f0160208091040260200160405190810160405280929190818152602001828054600181600116156101000203166002900480156117db5780601f106117b0576101008083540402835291602001916117db565b820191906000526020600020905b8154815290600101906020018083116117be57829003601f168201915b5050505050611dc0565b73ffffffffffffffffffffffffffffffffffffffff16600760009054906101000a900473ffffffffffffffffffffffffffffffffffffffff1673ffffffffffffffffffffffffffffffffffffffff1614151561184057600080fd5b8060098381548110151561185057fe5b9060005260206000209060060201600301908051906020019061187492919061218d565b505050565b60008060009054906101000a900473ffffffffffffffffffffffffffffffffffffffff16905090565b6000809054906101000a900473ffffffffffffffffffffffffffffffffffffffff1681565b6000600760009054906101000a900473ffffffffffffffffffffffffffffffffffffffff16905090565b60008060608060008060098781548110151561190957fe5b90600052602060002090600602016000015460098881548110151561192a57fe5b906000526020600020906006020160010160009054906101000a900473ffffffffffffffffffffffffffffffffffffffff1660098981548110151561196b57fe5b906000526020600020906006020160020160098a81548110151561198b57fe5b906000526020600020906006020160030160098b8154811015156119ab57fe5b90600052602060002090600602016004015460098c8154811015156119cc57fe5b906000526020600020906006020160050154838054600181600116156101000203166002900480601f016020809104026020016040519081016040528092919081815260200182805460018160011615610100020316600290048015611a735780601f10611a4857610100808354040283529160200191611a73565b820191906000526020600020905b815481529060010190602001808311611a5657829003601f168201915b50505050509350828054600181600116156101000203166002900480601f016020809104026020016040519081016040528092919081815260200182805460018160011615610100020316600290048015611b0f5780601f10611ae457610100808354040283529160200191611b0f565b820191906000526020600020905b815481529060010190602001808311611af257829003601f168201915b5050505050925095509550955095509550955091939550919395565b600080600660009054906101000a900473ffffffffffffffffffffffffffffffffffffffff1673ffffffffffffffffffffffffffffffffffffffff163373ffffffffffffffffffffffffffffffffffffffff16141515611b8a57600080fd5b6001600960c060405190810160405280866000191681526020013373ffffffffffffffffffffffffffffffffffffffff1681526020016040805190810160405280600381526020017f307830000000000000000000000000000000000000000000000000000000000081525081526020016040805190810160405280600381526020017f30783000000000000000000000000000000000000000000000000000000000008152508152602001600081526020016000815250908060018154018082558091505090600182039060005260206000209060060201600090919290919091506000820151816000019060001916905560208201518160010160006101000a81548173ffffffffffffffffffffffffffffffffffffffff021916908373ffffffffffffffffffffffffffffffffffffffff1602179055506040820151816002019080519060200190611ce092919061220d565b506060820151816003019080519060200190611cfd92919061220d565b506080820151816004015560a082015181600501555050039050336001600083815260200190815260200160002060006101000a81548173ffffffffffffffffffffffffffffffffffffffff021916908373ffffffffffffffffffffffffffffffffffffffff1602179055506001600260003373ffffffffffffffffffffffffffffffffffffffff1673ffffffffffffffffffffffffffffffffffffffff1681526020019081526020016000206000828254019250508190555080915050919050565b6000806000806060600060418751141515611dda57600080fd5b6020870151945060408701519350606087015160001a9250601b8360ff161015611e0557601b830192505b6040805190810160405280601c81526020017f19457468657265756d205369676e6564204d6573736167653a0a333200000000815250915081886040518083805190602001908083835b602083101515611e745780518252602082019150602081019050602083039250611e4f565b6001836020036101000a03801982511681845116808217855250505050505090500182600019166000191681526020019250505060405180910390209050601b8360ff161480611ec75750601c8360ff16145b1515611ed257600080fd5b600181848787604051600081526020016040526040518085600019166000191681526020018460ff1660ff1681526020018360001916600019168152602001826000191660001916815260200194505050505060206040516020810390808403906000865af1158015611f49573d6000803e3d6000fd5b50505060206040510351955060008673ffffffffffffffffffffffffffffffffffffffff1614151515611f7b57600080fd5b505050505092915050565b60016020528060005260406000206000915054906101000a900473ffffffffffffffffffffffffffffffffffffffff1681565b6000809054906101000a900473ffffffffffffffffffffffffffffffffffffffff1673ffffffffffffffffffffffffffffffffffffffff163373ffffffffffffffffffffffffffffffffffffffff1614151561201457600080fd5b80600860006101000a81548173ffffffffffffffffffffffffffffffffffffffff021916908373ffffffffffffffffffffffffffffffffffffffff16021790555050565b6000809054906101000a900473ffffffffffffffffffffffffffffffffffffffff1673ffffffffffffffffffffffffffffffffffffffff163373ffffffffffffffffffffffffffffffffffffffff161415156120b357600080fd5b6000809054906101000a900473ffffffffffffffffffffffffffffffffffffffff1673ffffffffffffffffffffffffffffffffffffffff163373ffffffffffffffffffffffffffffffffffffffff1614151561210e57600080fd5b600073ffffffffffffffffffffffffffffffffffffffff168173ffffffffffffffffffffffffffffffffffffffff161415151561214a57600080fd5b806000806101000a81548173ffffffffffffffffffffffffffffffffffffffff021916908373ffffffffffffffffffffffffffffffffffffffff16021790555050565b828054600181600116156101000203166002900490600052602060002090601f016020900481019282601f106121ce57805160ff19168380011785556121fc565b828001600101855582156121fc579182015b828111156121fb5782518255916020019190600101906121e0565b5b509050612209919061228d565b5090565b828054600181600116156101000203166002900490600052602060002090601f016020900481019282601f1061224e57805160ff191683800117855561227c565b8280016001018555821561227c579182015b8281111561227b578251825591602001919060010190612260565b5b509050612289919061228d565b5090565b6122af91905b808211156122ab576000816000905550600101612293565b5090565b905600a165627a7a72305820f52e5c15d0df28bf56b1e0df91a3365f1b1b562df2ddb9baa7da80e151ba62460029",
  "source": "pragma solidity ^0.4.19;\nimport \"./MyVerify.sol\";\nimport \"./Owned.sol\";\n\ncontract Vote is MyVerify {\n\n    //mapping (uint => uint) voteId;\n    mapping(uint => address) public voteToOwner;\n    mapping(address => uint) public voterVoteCount;\n    mapping(address => bytes) resultOfVote;\n    mapping(address => uint) addressToResult;\n    \n    \n    uint testId = 1;\n    \n    address voterAddr;\n    address organizerAddr;\n    address inspectorAddr;\n\n    constructor(){\n        organizerAddr = msg.sender;\n    }\n    \n    //vote \n    struct Vote{\n        bytes32 hashedVote;\n        address voterAddr;\n        bytes signByOrganizer;\n        bytes signByInspector;\n        uint publickey1;\n        uint publickey2;\n    }\n    \n    Vote[] public votes;\n\n    mapping(uint => Vote) public ballots;\n\n    modifier onlyVoter{\n        require(msg.sender == voterAddr);\n        _;\n    }\n\n    modifier onlyInspector{\n        require(msg.sender == inspectorAddr);\n        _;\n    }\n    \n    ///test \n    function test(uint _testId) public {\n        testId = _testId;\n    }\n\n    //test\n    function testreturn() public returns(uint){\n        return testId;\n    }\n    //test\n    function setInspectorAddr(address _inspectorAddr) public onlyOwner{\n        inspectorAddr = _inspectorAddr;\n    }\n    //test///\n    function checkVoterAddr() public returns(address){\n        return voterAddr;\n    }\n\n    //test\n    function getOwner() public returns (address){\n        return ownerAddr;\n    }\n    \n    //test\n    function testVoter(uint count) public onlyVoter returns(uint){\n        return count;\n    }\n\n    //test \n    function getVoteSignByOrganizer(uint _voteId) public returns(bytes){\n        return votes[_voteId].signByOrganizer;\n    }\n\n    //test \n    function getVoteFromId(uint _voteId) public returns(bytes32,address,bytes,bytes,uint,uint){\n        return (\n            votes[_voteId].hashedVote,\n            votes[_voteId].voterAddr,\n            votes[_voteId].signByOrganizer,\n            votes[_voteId].signByInspector,\n            votes[_voteId].publickey1,\n            votes[_voteId].publickey2\n        );\n    }\n\n    //test\n    function getOrganizerAddr() public returns(address){\n        return organizerAddr;\n    } \n\n    //set voter address\n    function setVoterAddr(address _voterAddr) public onlyOwner{\n        voterAddr = _voterAddr;\n        //voterAddrs[_index] = _voterAddr;\n    }\n    function createVote(bytes32 _hashedVote) public onlyVoter returns(uint){\n        //\n        uint id = votes.push(Vote(_hashedVote,msg.sender,\"0x0\",\"0x0\",0,0))-1;\n        //\n        voteToOwner[id] = msg.sender;\n\n        voterVoteCount[msg.sender] += 1;\n        return id;\n    }\n    \n    function signByOrganizer(uint _voteId, bytes _signature) public onlyOwner{\n        /*\n        signatureweb3\n        _signature = web3.eth.sign(account, hash)\n        */\n        \n        votes[_voteId].signByOrganizer = _signature;\n\n        //organzierVote\n        /////\n        //RSA\n        //(7,11)\n        votes[_voteId].publickey1 = 7;\n        votes[_voteId].publickey2 = 11;\n\n        //ECC\n        \n    }\n    \n    //signature by Inspector\n    function signByInspector(uint _voteId, bytes _signature) public onlyInspector{\n        //send voter\n        //send public key and vote\n        //signatureweb3\n        //web3.eth.sign(account, hash)accountOrganaizer\n        //_signature\n        \n        //Vote storage myVote = votes[_voteId];\n        //TODO:\n        require(organizerAddr == ecverify(votes[_voteId].hashedVote,votes[_voteId].signByOrganizer));\n        //\n        //\n        //\n        //myVote.signByInspector = _signature;\n        votes[_voteId].signByInspector = _signature;\n    }\n    \n    function sendToOrganizer(bytes _pkV, uint _voteId) public onlyVoter{\n        //Vote.organizerSigecverify\n        Vote storage myVote = votes[_voteId];\n\n        require(organizerAddr == ecverify(votes[_voteId].hashedVote,votes[_voteId].signByOrganizer));\n        require(inspectorAddr == ecverify(myVote.hashedVote, myVote.signByInspector));\n\n        resultOfVote[msg.sender] = _pkV;\n    }\n\n\n    function voteToCandidate(address _address, uint _candidateId) public onlyOwner{\n        addressToResult[_address] = _candidateId;\n    }\n\n    function viewResult(address _voterAddr) public returns(uint){\n        return addressToResult[_voterAddr];\n    }\n\n}",
  "sourcePath": "/Users/andy/evoting_beta/contracts/Vote.sol",
  "compiler": {
    "name": "solc",
    "version": "0.4.24+commit.e67f0147.Emscripten.clang"
  },
  "schemaVersion": "2.0.1",
  "updatedAt": "2018-10-18T10:17:01.635Z"
}