{
  "contractName": "Vote",
  "abi": [
    {
      "constant": true,
      "inputs": [
        {
          "name": "",
          "type": "uint256"
        }
      ],
      "name": "votes",
      "outputs": [
        {
          "name": "hashedVote",
          "type": "bytes32"
        },
        {
          "name": "voterAddr",
          "type": "address"
        },
        {
          "name": "signByOrganizer",
          "type": "bytes"
        },
        {
          "name": "signByInspector",
          "type": "bytes"
        }
      ],
      "payable": false,
      "stateMutability": "view",
      "type": "function"
    },
    {
      "constant": true,
      "inputs": [],
      "name": "ownerAddr",
      "outputs": [
        {
          "name": "",
          "type": "address"
        }
      ],
      "payable": false,
      "stateMutability": "view",
      "type": "function"
    },
    {
      "constant": true,
      "inputs": [
        {
          "name": "hash",
          "type": "bytes32"
        },
        {
          "name": "signature",
          "type": "bytes"
        }
      ],
      "name": "ecverify",
      "outputs": [
        {
          "name": "sig_address",
          "type": "address"
        }
      ],
      "payable": false,
      "stateMutability": "pure",
      "type": "function"
    },
    {
      "constant": true,
      "inputs": [
        {
          "name": "",
          "type": "uint256"
        }
      ],
      "name": "voteToOwner",
      "outputs": [
        {
          "name": "",
          "type": "address"
        }
      ],
      "payable": false,
      "stateMutability": "view",
      "type": "function"
    },
    {
      "constant": false,
      "inputs": [
        {
          "name": "_newOwner",
          "type": "address"
        }
      ],
      "name": "transferOwnership",
      "outputs": [],
      "payable": false,
      "stateMutability": "nonpayable",
      "type": "function"
    },
    {
      "constant": false,
      "inputs": [
        {
          "name": "_voterAddr",
          "type": "address"
        }
      ],
      "name": "setVoterAddr",
      "outputs": [],
      "payable": false,
      "stateMutability": "nonpayable",
      "type": "function"
    },
    {
      "constant": false,
      "inputs": [
        {
          "name": "count",
          "type": "uint256"
        }
      ],
      "name": "testVoter",
      "outputs": [
        {
          "name": "",
          "type": "uint256"
        }
      ],
      "payable": false,
      "stateMutability": "nonpayable",
      "type": "function"
    },
    {
      "constant": false,
      "inputs": [
        {
          "name": "_hashedVote",
          "type": "bytes32"
        }
      ],
      "name": "createVote",
      "outputs": [
        {
          "name": "",
          "type": "uint256"
        }
      ],
      "payable": false,
      "stateMutability": "nonpayable",
      "type": "function"
    },
    {
      "constant": false,
      "inputs": [
        {
          "name": "_voteId",
          "type": "uint256"
        },
        {
          "name": "_signature",
          "type": "bytes"
        }
      ],
      "name": "signByOrganizer",
      "outputs": [],
      "payable": false,
      "stateMutability": "nonpayable",
      "type": "function"
    },
    {
      "constant": false,
      "inputs": [
        {
          "name": "_voteId",
          "type": "uint256"
        },
        {
          "name": "_signature",
          "type": "bytes"
        }
      ],
      "name": "signByInspector",
      "outputs": [],
      "payable": false,
      "stateMutability": "nonpayable",
      "type": "function"
    },
    {
      "constant": false,
      "inputs": [
        {
          "name": "_voteId",
          "type": "uint256"
        }
      ],
      "name": "voteToCandidate",
      "outputs": [],
      "payable": false,
      "stateMutability": "nonpayable",
      "type": "function"
    },
    {
      "constant": true,
      "inputs": [
        {
          "name": "_candidateId",
          "type": "uint256"
        }
      ],
      "name": "getVote",
      "outputs": [
        {
          "name": "",
          "type": "uint256"
        }
      ],
      "payable": false,
      "stateMutability": "view",
      "type": "function"
    },
    {
      "constant": false,
      "inputs": [
        {
          "name": "_testId",
          "type": "uint256"
        }
      ],
      "name": "test",
      "outputs": [],
      "payable": false,
      "stateMutability": "nonpayable",
      "type": "function"
    },
    {
      "constant": false,
      "inputs": [],
      "name": "testreturn",
      "outputs": [
        {
          "name": "",
          "type": "uint256"
        }
      ],
      "payable": false,
      "stateMutability": "nonpayable",
      "type": "function"
    }
  ],
  "bytecode": "0x6080604052336000806101000a81548173ffffffffffffffffffffffffffffffffffffffff021916908373ffffffffffffffffffffffffffffffffffffffff160217905550611405806100536000396000f3006080604052600436106100d0576000357c0100000000000000000000000000000000000000000000000000000000900463ffffffff1680631dd410cf146100d5578063201497ef14610118578063241108d11461014357806329e99f071461018457806356be1658146101b1578063596215e4146101de5780635a55c1f0146102515780635df81330146102925780636804565b146103e65780639c675eaa14610459578063cc9afb47146104b0578063e47c5902146104f5578063e6ee3e64146105ac578063f2fde38b14610619575b600080fd5b3480156100e157600080fd5b50610116600480360381019080803573ffffffffffffffffffffffffffffffffffffffff16906020019092919050505061065c565b005b34801561012457600080fd5b5061012d6106fb565b6040518082815260200191505060405180910390f35b34801561014f57600080fd5b5061016e60048036038101908080359060200190929190505050610705565b6040518082815260200191505060405180910390f35b34801561019057600080fd5b506101af6004803603810190808035906020019092919050505061076b565b005b3480156101bd57600080fd5b506101dc60048036038101908080359060200190929190505050610775565b005b3480156101ea57600080fd5b5061024f60048036038101908080359060200190929190803590602001908201803590602001908080601f01602080910402602001604051908101604052809392919081815260200183838082843782019150505050505091929192905050506108fb565b005b34801561025d57600080fd5b5061027c60048036038101908080359060200190929190505050610995565b6040518082815260200191505060405180910390f35b34801561029e57600080fd5b506102bd60048036038101908080359060200190929190505050610a0d565b6040518085600019166000191681526020018473ffffffffffffffffffffffffffffffffffffffff1673ffffffffffffffffffffffffffffffffffffffff1681526020018060200180602001838103835285818151815260200191508051906020019080838360005b83811015610341578082015181840152602081019050610326565b50505050905090810190601f16801561036e5780820380516001836020036101000a031916815260200191505b50838103825284818151815260200191508051906020019080838360005b838110156103a757808201518184015260208101905061038c565b50505050905090810190601f1680156103d45780820380516001836020036101000a031916815260200191505b50965050505050505060405180910390f35b3480156103f257600080fd5b5061045760048036038101908080359060200190929190803590602001908201803590602001908080601f0160208091040260200160405190810160405280939291908181526020018383808284378201915050505050509192919290505050610b9c565b005b34801561046557600080fd5b5061046e610d3c565b604051808273ffffffffffffffffffffffffffffffffffffffff1673ffffffffffffffffffffffffffffffffffffffff16815260200191505060405180910390f35b3480156104bc57600080fd5b506104df6004803603810190808035600019169060200190929190505050610d61565b6040518082815260200191505060405180910390f35b34801561050157600080fd5b5061056a6004803603810190808035600019169060200190929190803590602001908201803590602001908080601f0160208091040260200160405190810160405280939291908181526020018383808284378201915050505050509192919290505050610f86565b604051808273ffffffffffffffffffffffffffffffffffffffff1673ffffffffffffffffffffffffffffffffffffffff16815260200191505060405180910390f35b3480156105b857600080fd5b506105d76004803603810190808035906020019092919050505061114c565b604051808273ffffffffffffffffffffffffffffffffffffffff1673ffffffffffffffffffffffffffffffffffffffff16815260200191505060405180910390f35b34801561062557600080fd5b5061065a600480360381019080803573ffffffffffffffffffffffffffffffffffffffff16906020019092919050505061117f565b005b6000809054906101000a900473ffffffffffffffffffffffffffffffffffffffff1673ffffffffffffffffffffffffffffffffffffffff163373ffffffffffffffffffffffffffffffffffffffff161415156106b757600080fd5b80600960006101000a81548173ffffffffffffffffffffffffffffffffffffffff021916908373ffffffffffffffffffffffffffffffffffffffff16021790555050565b6000600854905090565b6000600960009054906101000a900473ffffffffffffffffffffffffffffffffffffffff1673ffffffffffffffffffffffffffffffffffffffff163373ffffffffffffffffffffffffffffffffffffffff1614151561076357600080fd5b819050919050565b8060088190555050565b6000600960009054906101000a900473ffffffffffffffffffffffffffffffffffffffff1673ffffffffffffffffffffffffffffffffffffffff163373ffffffffffffffffffffffffffffffffffffffff161415156107d357600080fd5b600c828154811015156107e257fe5b9060005260206000209060040201905061089c8160000154826003018054600181600116156101000203166002900480601f0160208091040260200160405190810160405280929190818152602001828054600181600116156101000203166002900480156108925780601f1061086757610100808354040283529160200191610892565b820191906000526020600020905b81548152906001019060200180831161087557829003601f168201915b5050505050610f86565b73ffffffffffffffffffffffffffffffffffffffff16600b60009054906101000a900473ffffffffffffffffffffffffffffffffffffffff1673ffffffffffffffffffffffffffffffffffffffff161415156108f757600080fd5b5050565b60008060009054906101000a900473ffffffffffffffffffffffffffffffffffffffff1673ffffffffffffffffffffffffffffffffffffffff163373ffffffffffffffffffffffffffffffffffffffff1614151561095857600080fd5b600c8381548110151561096757fe5b906000526020600020906004020190508181600201908051906020019061098f9291906112b4565b50505050565b60008060009054906101000a900473ffffffffffffffffffffffffffffffffffffffff1673ffffffffffffffffffffffffffffffffffffffff163373ffffffffffffffffffffffffffffffffffffffff161415156109f257600080fd5b60066000838152602001908152602001600020549050919050565b600c81815481101515610a1c57fe5b90600052602060002090600402016000915090508060000154908060010160009054906101000a900473ffffffffffffffffffffffffffffffffffffffff1690806002018054600181600116156101000203166002900480601f016020809104026020016040519081016040528092919081815260200182805460018160011615610100020316600290048015610af45780601f10610ac957610100808354040283529160200191610af4565b820191906000526020600020905b815481529060010190602001808311610ad757829003601f168201915b505050505090806003018054600181600116156101000203166002900480601f016020809104026020016040519081016040528092919081815260200182805460018160011615610100020316600290048015610b925780601f10610b6757610100808354040283529160200191610b92565b820191906000526020600020905b815481529060010190602001808311610b7557829003601f168201915b5050505050905084565b6000600b60009054906101000a900473ffffffffffffffffffffffffffffffffffffffff1673ffffffffffffffffffffffffffffffffffffffff163373ffffffffffffffffffffffffffffffffffffffff16141515610bfa57600080fd5b600c83815481101515610c0957fe5b90600052602060002090600402019050610cc38160000154826002018054600181600116156101000203166002900480601f016020809104026020016040519081016040528092919081815260200182805460018160011615610100020316600290048015610cb95780601f10610c8e57610100808354040283529160200191610cb9565b820191906000526020600020905b815481529060010190602001808311610c9c57829003601f168201915b5050505050610f86565b73ffffffffffffffffffffffffffffffffffffffff16600a60009054906101000a900473ffffffffffffffffffffffffffffffffffffffff1673ffffffffffffffffffffffffffffffffffffffff16141515610d1e57600080fd5b81816003019080519060200190610d369291906112b4565b50505050565b6000809054906101000a900473ffffffffffffffffffffffffffffffffffffffff1681565b600080600960009054906101000a900473ffffffffffffffffffffffffffffffffffffffff1673ffffffffffffffffffffffffffffffffffffffff163373ffffffffffffffffffffffffffffffffffffffff16141515610dc057600080fd5b6001600c608060405190810160405280866000191681526020013373ffffffffffffffffffffffffffffffffffffffff1681526020016040805190810160405280600381526020017f307830000000000000000000000000000000000000000000000000000000000081525081526020016040805190810160405280600381526020017f3078300000000000000000000000000000000000000000000000000000000000815250815250908060018154018082558091505090600182039060005260206000209060040201600090919290919091506000820151816000019060001916905560208201518160010160006101000a81548173ffffffffffffffffffffffffffffffffffffffff021916908373ffffffffffffffffffffffffffffffffffffffff1602179055506040820151816002019080519060200190610f08929190611334565b506060820151816003019080519060200190610f25929190611334565b505050039050336001600083815260200190815260200160002060006101000a81548173ffffffffffffffffffffffffffffffffffffffff021916908373ffffffffffffffffffffffffffffffffffffffff16021790555080915050919050565b6000806000806060600060418751141515610fa057600080fd5b6020870151945060408701519350606087015160001a9250601b8360ff161015610fcb57601b830192505b6040805190810160405280601c81526020017f19457468657265756d205369676e6564204d6573736167653a0a333200000000815250915081886040518083805190602001908083835b60208310151561103a5780518252602082019150602081019050602083039250611015565b6001836020036101000a03801982511681845116808217855250505050505090500182600019166000191681526020019250505060405180910390209050601b8360ff16148061108d5750601c8360ff16145b151561109857600080fd5b600181848787604051600081526020016040526040518085600019166000191681526020018460ff1660ff1681526020018360001916600019168152602001826000191660001916815260200194505050505060206040516020810390808403906000865af115801561110f573d6000803e3d6000fd5b50505060206040510351955060008673ffffffffffffffffffffffffffffffffffffffff161415151561114157600080fd5b505050505092915050565b60016020528060005260406000206000915054906101000a900473ffffffffffffffffffffffffffffffffffffffff1681565b6000809054906101000a900473ffffffffffffffffffffffffffffffffffffffff1673ffffffffffffffffffffffffffffffffffffffff163373ffffffffffffffffffffffffffffffffffffffff161415156111da57600080fd5b6000809054906101000a900473ffffffffffffffffffffffffffffffffffffffff1673ffffffffffffffffffffffffffffffffffffffff163373ffffffffffffffffffffffffffffffffffffffff1614151561123557600080fd5b600073ffffffffffffffffffffffffffffffffffffffff168173ffffffffffffffffffffffffffffffffffffffff161415151561127157600080fd5b806000806101000a81548173ffffffffffffffffffffffffffffffffffffffff021916908373ffffffffffffffffffffffffffffffffffffffff16021790555050565b828054600181600116156101000203166002900490600052602060002090601f016020900481019282601f106112f557805160ff1916838001178555611323565b82800160010185558215611323579182015b82811115611322578251825591602001919060010190611307565b5b50905061133091906113b4565b5090565b828054600181600116156101000203166002900490600052602060002090601f016020900481019282601f1061137557805160ff19168380011785556113a3565b828001600101855582156113a3579182015b828111156113a2578251825591602001919060010190611387565b5b5090506113b091906113b4565b5090565b6113d691905b808211156113d25760008160009055506001016113ba565b5090565b905600a165627a7a723058207aae5e424478f27dd502db473731691c9723c012337532c28e9490fa31a35fbd0029",
  "source": "pragma solidity ^0.4.19;\nimport \"./MyVerify.sol\";\nimport \"./Owned.sol\";\n\ncontract Vote is MyVerify {\n\n    //mapping (uint => uint) voteId;\n    mapping(uint => address) public voteToOwner;\n    mapping(address => uint) ownerToVote;\n    mapping(address => uint) ownerVoteCount;\n    mapping(address => bytes32) hashedIdCollections;\n    mapping (uint => address) candidateToAddress;\n    mapping(uint => uint) candidateVoteCounts;\n    mapping(bytes32 => uint) firstSend;\n\n    uint testId;\n    \n    address voterAddr;\n    address organizerAddr;\n    address inspectorAddr;\n    \n    //vote \n    struct Vote{\n        bytes32 hashedVote;\n        address voterAddr;\n        bytes signByOrganizer;\n        bytes signByInspector;\n    }\n    \n    Vote[] public votes;\n\n    modifier onlyVoter{\n        require(msg.sender == voterAddr);\n        _;\n    }\n\n    modifier onlyInspector{\n        require(msg.sender == inspectorAddr);\n        _;\n    }\n    \n    //set voter address\n    function setVoterAddr(address _voterAddr) public onlyOwner{\n        voterAddr = _voterAddr;\n        //voterAddrs[_index] = _voterAddr;\n    }\n    \n    function testVoter(uint count) public onlyVoter returns(uint){\n        return count;\n    }\n    \n    function createVote(bytes32 _hashedVote) public onlyVoter returns(uint){\n        //票の初期化\n        uint id = votes.push(Vote(_hashedVote,msg.sender,\"0x0\",\"0x0\"))-1;\n        //票と投票者の紐付け\n        voteToOwner[id] = msg.sender;\n        return id;\n    }\n    \n    function signByOrganizer(uint _voteId, bytes _signature) public onlyOwner{\n        /*\n        signatureはクライアント側でweb3を使う必要あり\n        _signature = web3.eth.sign(account, hash)\n        */\n        \n        Vote storage myVote = votes[_voteId];\n        myVote.signByOrganizer = _signature;\n        //これでorganzierのアドレスが返して，それをVoteに入れる\n        /////公開鍵を投票者に送信\n        \n    }\n    \n    //signature by Inspector\n    function signByInspector(uint _voteId, bytes _signature) public onlyInspector{\n        //send voter\n        //send public key and vote\n        //signatureはクライアント側でweb3を使う必要あり\n        //web3.eth.sign(account, hash)のaccountをOrganaizerのアドレスで実行して\n        //_signatureに渡すこと\n        \n        Vote storage myVote = votes[_voteId];\n        //運営の署名の検証\n        require(organizerAddr == ecverify(myVote.hashedVote,myVote.signByOrganizer));\n        //投票者の確認\n        //未実装\n        //署名\n        myVote.signByInspector = _signature;\n    }\n    \n    function voteToCandidate(uint _voteId) public onlyVoter{\n        //Vote.organizerSigの内容をecverifyで確認する\n        Vote storage myVote = votes[_voteId];\n        require(inspectorAddr == ecverify(myVote.hashedVote, myVote.signByInspector));\n        //ここから公開鍵で暗号化された投票内容（hashではない）を復号\n        //hashedVoteを復号する.\n        //candidateVoteCounts[_candidateId]++;\n    }\n\n\n    //count votes\n    function getVote(uint _candidateId) public view onlyOwner returns(uint){\n        return candidateVoteCounts[_candidateId];\n    }\n    \n    ///////////////////test ///////////////////\n    function test(uint _testId) public {\n        testId = _testId;\n    }\n\n    function testreturn() public returns(uint){\n        return testId;\n    }\n    ////////////test////////////////////////\n\n}",
  "sourcePath": "/Users/andy/evoting_beta/contracts/Vote.sol",
  "compiler": {
    "name": "solc",
    "version": "0.4.24+commit.e67f0147.Emscripten.clang"
  },
  "schemaVersion": "2.0.1",
  "updatedAt": "2018-09-03T06:18:48.348Z"
}